:020000040800F2
:10000000780E0020C9010008051200086D0D0008D7
:100010000112000871020008DD260008000000003F
:100020000000000000000000000000003916000879
:10003000AD090008000000003D140008C11F0008C1
:10004000E3010008E3010008E3010008E301000800
:10005000E3010008E3010008E3010008E3010008F0
:10006000E3010008E3010008E3010008E3010008E0
:10007000E3010008E3010008E3010008E3010008D0
:10008000E3010008E3010008E3010008E3010008C0
:1000900079250008E3010008E3010008E3010008F6
:1000A000E3010008E3010008E3010008E3010008A0
:1000B000E3010008E3010008E3010008E301000890
:1000C000E3010008E3010008E3010008E301000880
:1000D000E301000809220008E3010008E301000829
:1000E000E3010008E30100080B23000800F002F818
:1000F00000F05AF80AA090E8000C82448344AAF168
:100100000107DA4501D100F04FF8AFF2090EBAE865
:100110000F0013F0010F18BFFB1A43F0010318473B
:1001200014430000344300000A444FF0000C10F860
:10013000013B13F0070408BF10F8014B1D1108BF65
:1001400010F8015B641E05D010F8016B641E01F805
:10015000016BF9D113F0080F1EBF10F8014BAD1C55
:100160000C1B09D16D1E58BF01F801CBFAD505E073
:1001700014F8016B01F8016B6D1EF9D59142D6D3CD
:10018000704700000023002400250026103A28BFF5
:1001900078C1FBD8520728BF30C148BF0B607047F9
:1001A0001FB51FBD10B510BD00F033F81146FFF7A5
:1001B000F7FF02F03DFC00F051F803B4FFF7F2FF47
:1001C00003BC02F0E9FB00000948804709480047EA
:1001D000FEE7FEE7FEE7FEE7FEE7FEE7FEE7FEE7F7
:1001E000FEE7FEE704480549054A064B7047000054
:1001F000C51F0008ED00000878080020780E0020D8
:10020000780A0020780A00207047704770477047CE
:100210007047754600F028F8AE460500694653461B
:1002200020F00700854618B020B5FFF7DBFFBDE8DA
:1002300020404FF000064FF000074FF000084FF04D
:10024000000B21F00701AC46ACE8C009ACE8C009DE
:10025000ACE8C009ACE8C0098D4670470446AFF36E
:1002600000802046FFF7A9FF0048704718080020CB
:1002700000BFFEE70146CAB20B1243EA02207047F4
:1002800008B50020009022E19748008800F00F0098
:10029000964908700846007800287CD19448006888
:1002A000944908800846008800F030009249088090
:1002B0009048008800F440508E4908808C490968B5
:1002C0004BF6BF7201EA020080F4005080F020007B
:1002D00040F4004141F08001854A11608248008865
:1002E00000F0100090BB1046006848F60F710840FF
:1002F0001146086000F03CFD7D4909684BF6BF726D
:1003000001EA02007B49098801F4805109B180F4B7
:1003100080507849098801F4005109B180F40050F7
:100320007549098801F0100109B180F01000724987
:10033000098801F0200109B180F0200081B241F468
:10034000004141F080016A4A116008BDFFE768483A
:10035000006880B20090BDF8000000F40060B0B307
:1003600063480068C0F30E0048F68F71084060498A
:10037000086001F01DFB5E4909684BF6BF7201EA97
:1003800002005C49098801F4805109B180F4805071
:100390005849098800E056E001F4005109B180F4A1
:1003A00000505549098801F0100109B180F0100092
:1003B0005149098801F0200109B180F0200081B283
:1003C00041F4004141F08001494A1160BDE7FFE777
:1003D000BDF8000000F40040002878D044480068D0
:1003E000C0F30E0048F68F7108404149086000F0E4
:1003F000E9FF3F4909684BF6BF7201EA02003D4937
:10040000098801F4805109B180F480503949098884
:1004100001F4005109B180F400503749098801F016
:10042000100109B180F010003349098801F0200162
:1004300009B180F0200081B241F4004141F0800117
:100440002B4A116081E7294800782C4901EB800094
:10045000D0F8000C80B20090BDF8000000F400401D
:10046000C0B12248007801EB8000D0F8000CC0F346
:100470000E0048F68F7108401C4909781F4A02EBAC
:100480008101C1F8000C19490978491E1C4A52F82B
:1004900021008047BDF8000000F08000B8B113488B
:1004A0000078164901EB8000D0F8000C48F60F7177
:1004B00008400E490978114A02EB8101C1F8000C8D
:1004C0000A490978491E0F4A52F821008047084816
:1004D0004430006880B20449088000F400400028DD
:1004E0007FF4D2AE00BF30E75C0000202400002083
:1004F000005C0040380000203A000020005000401E
:1005000084000020680000200B4A02EB8001D1F833
:10051000001C01F4804171B102EB8001D1F8001C94
:1005200048F68F7211404CF280021143024B03EBEC
:100530008002C2F8001C7047005000400B4A02EBDA
:100540008001D1F8001C01F0400171B102EB800183
:10055000D1F8001C48F68F72114048F2C0021143D6
:10056000024B03EB8002C2F8001C704700500040B1
:10057000084A02EB8001D1F8001C48F68F62114056
:1005800048F280021143034B03EB8002C2F8001CC7
:1005900070470000005000402DE9F04728480068EF
:1005A00000F110052E8826480068077AD6B9042F76
:1005B00018D12448007801280FD100212248006872
:1005C00080B2801C214A42F8101030202049088057
:1005D00000BF00201B49087003E0072710201C49BA
:1005E000088027E0AC88A64201D8042000E0022061
:1005F0000746B44200D93446A0B2A968884780466D
:10060000002000F089FB8146A2B24946404602F034
:1006100067F8A1B2002001F0C3F82888001B2880E9
:100620006888204468803020094908800002094910
:10063000088000BF024909680F72BDE8F08700001A
:100640002800002020000020505C00400060004096
:100650003A000020380000202DE9F04128480068C9
:1006600000F110042688A068C0B1BEB1A588B542CB
:1006700000D93546A8B2A168884707462088401BA4
:100680002080608828446080002000F023FB8046A2
:10069000AAB24146384600F0BDFE00BF208850B1E6
:1006A0004FF44050174908800021084601F078F8BF
:1006B0003020154908802088A188884204DB032067
:1006C0000F490968087218E02088002804DD052019
:1006D0000B490968087210E0208870B906200849A3
:1006E0000968087200210948006880B2801C084A25
:1006F00042F81010302004490880BDE8F081000065
:1007000028000020380000203A000020505C004003
:10071000006000402DE9F84F9B48006845780027AD
:10072000BA46062D1BD198480068007800F07F007B
:10073000002813D1944909688878012803D1934986
:100740000968CF690AE0022803D1904909680F6A55
:1007500004E0032802D18D4909684F6A94E0002D16
:1007600064D189480068408800285FD186480068C5
:10077000C08802285AD1844800680079002855D1E1
:1007800081480068007800F07F0028B97E48006842
:10079000808808B97E4F77E07B480068007800F0D9
:1007A0007F00012810D1784909684879774909689C
:1007B0008A6900219047002866D173480068807AD2
:1007C000002861D0724F5FE06F480068007800F049
:1007D0007F00022858D16C480068407900F00F066D
:1007E00069480068407900F07009674800684079FE
:1007F00000F0800038B1674901EB8600D0F8000CAA
:1008000000F0300806E0634901EB8600D0F8000CE8
:1008100000F4405860480078B04235D9B9F1000F73
:1008200032D1B8F1000F2FD0594F2DE0082D07D14C
:1008300055480068007800F07F0028BB574F23E040
:100840000A2D21D150480068007800F07F0001286F
:100850001AD14D480068807AB0B14B480068408892
:1008600090B949480068007970B947480068C08865
:10087000012809D1444909684879444909688A69C5
:100880000021904700B9464F57B13F480068A0F893
:1008900012A03D48006887610020B84700240FE09F
:1008A000394A12685078394A1268116988470446F3
:1008B000032C05D10920344909680872BDE8F88F76
:1008C00031480068008A4FF6FF71884204D1092040
:1008D0002D4909680872F1E7022C03D02A48006804
:1008E000008A20B90820284909680872E6E72648E6
:1008F0000068007800F08000E0B323480068C088FA
:10090000009021480068008A0099884204D91E4955
:1009100000980968088223E01B480068008A1A4989
:100920000968C98888421BDA17480068008A174995
:10093000096891F82C10884203DA002019490870E0
:100940000EE011480068008A1049096891F82C10DF
:1009500090FBF1F201FB120010B90120114908705F
:100960000A48006890F82C10074800688182FFF759
:1009700013FE07E0FFE7032003490968087200033C
:100980000949088000BF99E7280000202C000020BA
:10099000511C000800500040AC000020D51B00088E
:1009A000251C00082000002038000020704770B58A
:1009B00005460E4614463146284600F0BFFF204645
:1009C00000F0C4FB70BD000070B52248B0F802040E
:1009D0002049B1F80014884200D170BD1D48B0F81C
:1009E00002041C49B1F80014884208DA1948B0F82A
:1009F00000041849B1F80214401A84B205E0154801
:100A0000B0F80204C0F5806084B2402C00DD4024C0
:100A10001048B0F80254B0F8020420440D49A1F87F
:100A200002040846B0F80204B0F5806F02DB002033
:100A3000A1F80204074948192246C02101F050FEDE
:100A40002146012000F0ACFE012000F0D7FE00BFDF
:100A5000C3E700002402002010B50649032001F07E
:100A6000CDFD84B2E1B2034801F0E0FD032000F0C7
:100A70006DFE10BDB80700200149086070470000F6
:100A800014040140002123498279002A3AD00A4601
:100A9000126803689A430B461A600A1D12680368BD
:100AA0009A430B1D1A60027911440A6803681A43BD
:100AB0000A60184A0832126803689A43154B0833D3
:100AC0001A601A1D126803689A43124B0C331A609D
:100AD0004279102A0ED11A1F126803681A430D4B6F
:100AE00008331A601A1D126803681A43094B0C3345
:100AF0001A600DE00749427911440A6803681A43F5
:100B00000A6005E0027911440A6803689A430A60A2
:100B1000704700000004014003200149086070474D
:100B2000340100202DE9F041024600250026002076
:100B300000230024002791F803C00CF00F0591F862
:100B400003C00CF0100CBCF1000F03D091F802C0F0
:100B50004CEA050591F800C0BCF1000F31D01468D3
:100B600000202BE04FF0010C0CFA00F3B1F800C0AC
:100B70000CEA03069E4220D183004FF00F0C0CFAC2
:100B800003F7BC4305FA03FC4CEA040491F803C0E4
:100B9000BCF1280F06D14FF0010C0CFA00FCC2F892
:100BA00014C00AE091F803C0BCF1480F05D14FF022
:100BB000010C0CFA00FCC2F810C0401C0828D1D36C
:100BC0001460B1F800C0BCF1FF0F34DD54680020A0
:100BD0002EE000F1080C4FF0010808FA0CF3B1F810
:100BE00000C00CEA03069E4221D183004FF00F0C97
:100BF0000CFA03F7BC4305FA03FC4CEA040491F831
:100C000003C0BCF1280F05D100F1080C08FA0CF85C
:100C1000C2F8148091F803C0BCF1480F07D100F16D
:100C2000080C4FF0010808FA0CF8C2F81080401CBC
:100C30000828CED35460BDE8F0810000F0B50A4624
:100C4000002300240021002500F00046B6F1004FEB
:100C500002D11D4EF16901E01B4E7168C0F30345DE
:100C600083B200F44016B6F5401F08D121F0706140
:100C7000154E766826F07066134F7E6012E000F421
:100C80008016B6F5801F06D1032606FA05F4A143A7
:100C900041F0706106E0460D360103FA06F6B143F5
:100CA00041F0706122B1460D360103FA06F6314378
:100CB00000F00046B6F1004F02D1034EF16101E0B1
:100CC000014E7160F0BD00000000014041617047BD
:100CD0000161704701460548006880B200EBC10021
:100CE000001D034A32F8100080B27047505C00408B
:100CF0000060004001460648006880B200EBC10079
:100D0000801D044A32F81000C0F30900704700004B
:100D1000505C00400060004001460548006880B219
:100D200000EBC100034A32F8100080B270470000A7
:100D3000505C00400060004070B50A480468001D27
:100D40000568001D0668344454B10822064920464F
:100D500000F046F8042204491031284600F040F81B
:100D600070BD0000E8F7FF1F4000002000BFFEE755
:100D700010B518480068047A022C01D0042C05D163
:100D8000FFF70AFC13480068047A1CE0062C19D10E
:100D900010480068407805280ED10E480068007899
:100DA00000F07F0040B90B490968C87800F04EFC9C
:100DB00009490968086A80470849096888688047BE
:100DC000082400E00824034909680C7200F038FB8D
:100DD00010BD000028000020340000202C0000205E
:100DE00030B50B46002100BF16E00A24B4EB107F9B
:100DF00005D9302404EB107403F8114005E04124B8
:100E000004EB10740A3C03F81140000100254C006B
:100E1000641C1D554C1CE1B29142E6DB30BD2DE94E
:100E2000FF4F85B081468A4600200390834607988D
:100E3000A0EB09050898A0EB0A06CDF80890CDF8BC
:100E400004A0002D01DD012705E00DB9002702E017
:100E50004FF0FF376D42002E02DD4FF0010806E033
:100E600016B94FF0000802E04FF0FF387642B54265
:100E700001DD2C4600E03446002004901EE0019A7B
:100E8000D1B2029AD0B2129AFFF791FD039828448A
:100E90000390B3440398A04205DD0398001B039020
:100EA000029838440290A34504DDABEB040B019893
:100EB000404401900498401C80B20490611C049846
:100EC0008842DCDD09B0BDE8F08F2DE9F843054626
:100ED0000E4617469846089C33463A463146284601
:100EE0000094FFF79CFF43462A463146284600946B
:100EF000FFF795FF43463A46414628460094FFF7E0
:100F00008EFF43463A46314638460094FFF787FF46
:100F1000BDE8F8832DE9F04706460F4690469A460D
:100F2000002445460320A0EB480944E07A1BD1B2D7
:100F30003219D0B25246FFF73AFD3A1BD1B27219BC
:100F4000D0B25246FFF733FD3A19D1B27219D0B27E
:100F50005246FFF72CFD7A19D1B23219D0B252465F
:100F6000FFF725FD7A19D1B2321BD0B25246FFF7F6
:100F70001EFD3A19D1B2721BD0B25246FFF717FDCF
:100F80007A1BD1B2321BD0B25246FFF710FD3A1B8A
:100F9000D1B2721BD0B25246FFF709FD641CB9F101
:100FA000000F03DAA000801D814404E0601B800074
:100FB0000A3081446D1EAC42B8DDBDE8F087000008
:100FC0002DE9F05F05460E4617469A46DDF828B033
:100FD000A7F12000C7B2BAF10C0F03D0BAF1100F7D
:100FE0007ED140E006F10B0C0CF0FF0305F1050C7F
:100FF0000CF0FF02F1B2E8B200F0BFFC20213C4847
:10100000FFF764FE10213A48FFF762FE002423E058
:1010100007EB4700374901EB800010F804804FF0E0
:10102000000914E008F0800018B10B9801F0A8FD49
:1010300005E0BBF1000F02D1002001F0A1FD4FEA55
:1010400048604FEA106809F1010000F0FF09B9F1AA
:10105000060FE7DB601CC4B20C2CD9DB202124482E
:10106000FFF736FE41E006F10F0C0CF0FF0305F12F
:10107000070C0CF0FF02F1B2E8B200F07EFC202178
:101080001B48FFF723FE10211948FFF721FE00241B
:1010900021E0194800EB071010F804804FF0000918
:1010A00014E008F0800018B10B9801F069FD05E02C
:1010B000BBF1000F02D1002001F062FD4FEA486051
:1010C0004FEA106809F1010000F0FF09B9F1080FBB
:1010D000E7DB601CC4B2102CDBDB2021044800E0FD
:1010E00002E0FFF7F5FD00E000BF00BFBDE8F09FA4
:1010F000000C0140C02B0008343000082DE9FC41F1
:1011000006460F4615461C46DDF8208019E00020F3
:10111000CDE900082A78234639463046FFF750FFCC
:101120006D1C204604EBD07106EB61018EB204EB1E
:10113000D4714910C1F18001B14202DC0026381996
:1011400087B228780028E2D1BDE8FC8101B59DF87E
:10115000010001F039F89DF8000001F035F808BDF4
:1011600007490968C9B2064A1160114609684FF477
:101170007F4202EA00221143014A116070470000D9
:101180000C0C01400548817A19B10521044A11600F
:1011900002E00121024A11607047000008020020AD
:1011A0003401002008B501213D2000F09DF9012106
:1011B0001048FFF743FD4FF47F40ADF800001020CA
:1011C0008DF8030003208DF8020069460A48FFF7F6
:1011D000A9FC7020ADF8000069460748FFF7A2FCA3
:1011E0004FF40040ADF8000069460448FFF79AFC50
:1011F00008BD000000023000000C01400008014062
:1012000000BFFEE77047704770B5002100230F2232
:10121000C47804B3154C246804F4E064C4F5E064B5
:10122000210AC1F10403CA40447804FA03F1847826
:101230001440214309010E4C0678A155047804F0AE
:101240001F050124AC4005786D11AD0005F1E025C6
:10125000C5F8004109E0047804F01F050124AC4002
:10126000044D0678761145F8264070BD0CED00E07F
:1012700000E400E080E100E002490143024A11601D
:10128000704700000000FA050CED00E070B5022682
:1012900047480068447846480068007800F07F00BE
:1012A000002844D1092C03D100F052FD06465FE02E
:1012B000052C14D13E480068C0787F280BDC3C48E0
:1012C0000068807838B93A480068808818B938488A
:1012D0000068807A08B1082565E0002648E0032C04
:1012E0000ED133480068C078012807D13048006823
:1012F000808818B900F050FD064639E0022637E034
:10130000012C35D12A480068C07801280DD1284821
:101310000068808848B926480068407A00F02000BC
:1013200018B100F0A1FB064622E0022620E020488A
:101330000068007800F07F00012805D10B2C17D140
:1013400000F0A6FD064613E019480068007800F09A
:101350007F0002280BD1012C03D100F085FB06464B
:1013600006E0032C04D100F02BFD064600E0022627
:101370004EB1E0B20F4A1268516988470646032E03
:1013800001D109250FE00EB108250CE0062500214A
:101390000948006880B2801C084A42F810103020CA
:1013A0000749088000BF024909680D7270BD00003E
:1013B000280000202C000020505C0040006000400D
:1013C0003A00002010B511480068047A022C01D0C0
:1013D000042C01D1082412E0032C01D0052C05D1E6
:1013E000FFF73AF909480068047A08E0072C05D1AC
:1013F00007490968C8688047082400E008240349B1
:1014000009680C7200F01CF810BD000028000020D4
:101410002C000020F0B5561C7510074E06EB410459
:101420002B4605E034F8047B20F8017B401C5B1E52
:10143000002BF7D1F0BD00000060004070470000B5
:1014400010B50D4890F82C10002000F039F90B4829
:101450000068007A082805D1400209490880102058
:101460000849088005480068007A092801D1012050
:1014700010BD0020FCE70000B00000202800002084
:10148000380000203A00002010B5012000F043FF92
:1014900001240B48046000200A490880084600889F
:1014A000074908600020091D08604FF4E050054915
:1014B00008800846008802490860002010BD00002E
:1014C000405C00403200002029B1064AD269024344
:1014D000044BDA6104E0034AD2698243014BDA61CA
:1014E000704700000010024029B1064A9269024389
:1014F000044B9A6104E0034A92698243014B9A616A
:101500007047000000100240014908607047000069
:10151000D800424270B50546072D01D02E4805700F
:101520002D48007808284ED2DFE800F004111A2078
:101530002B384E4F2948006828B900F053F8062090
:101540002549087002E005202349087041E000F0B9
:1015500049F804202049087001202049086038E03B
:1015600002201D4948700320087032E01A48407874
:10157000401E194948700846407808B90420087090
:1015800027E01748006884B244F01004144804604F
:101590000520114908700A2048701AE00E4840786A
:1015A000401E0D4948700846407858B90C480068FC
:1015B00084B224F010040A48046006200870002059
:1015C0000649086005E000BF00BF06200249087018
:1015D00000BF00BF70BD0000390100203C010020A9
:1015E000405C004010B50748006884B224F0040451
:1015F00004480460FFF7C6FD4FF43F40014908600E
:1016000010BD0000405C004010B509480068052886
:101610000CD1084801680068401C064A1060052982
:1016200004D1002011460860FFF7CEF910BD00007C
:101630003401002058000020704700004FF6F87178
:101640000140014A11607047505C004030B50146CE
:101650000F4B1A78002014E003060E4C04EB935352
:10166000D3F8003C48F68F74234048F280042343AB
:10167000C4B223430406074D05EB9454C4F8003C60
:10168000401C9042E8D341F08003034C236030BDFE
:10169000AC000020005000404C5C004010B54A10E7
:1016A0005300054A126892B202EBC002121D034CAD
:1016B00044F8123010BD0000505C00400060004053
:1016C00010B502460F48006880B200EBC200801DD2
:1016D0000D4C04EB40033E290BDD481101F01F04C3
:1016E0000CB9441EA0B24FF4004444EA80241C60AC
:1016F00007E0481001F001040CB1441CA0B28402C0
:101700001C6010BD505C00400060004030B50E4CC5
:1017100004EB8003D3F8003C4BF68F7403EA040219
:1017200001F480530BB182F4805201F400530BB1E9
:1017300082F4005242F4004343F08003024D05EB73
:101740008004C4F8003C30BD0050004010B50B4B85
:1017500003EB8002D2F8002C4BF68F7302EA0301F0
:1017600081F4805181F4005141F4004242F0800242
:10177000024C04EB8003C3F8002C10BD0050004065
:1017800010B54A105200044B1B689BB203EBC00318
:10179000024C44F8132010BD505C00400060004033
:1017A000044A126892B202EBC002921C024B43F848
:1017B00012107047505C00400060004030B50E4C85
:1017C00004EB8003D3F8003C48F6BF7403EA04023C
:1017D00001F010030BB182F0100201F020030BB1F5
:1017E00082F0200242F4004343F08003024D05EBF7
:1017F0008004C4F8003C30BD0050004010B50B4BD5
:1018000003EB8002D2F8002C48F6BF7302EA030112
:1018100081F0100181F0200141F4004242F0800289
:10182000024C04EB8003C3F8002C10BD00500040B4
:1018300010B5074B03EB8002D2F8002C48F68F134B
:101840001A400A43024C04EB8003C3F8002C10BD7D
:101850000050004010B500F001F810BD0CB500209C
:10186000019000903348006840F4803031490860AE
:1018700000BF3048006800F4003000900198401C20
:101880000190009818B90198B0F5A06FF1D12948DE
:10189000006800F4003010B10120009001E0002049
:1018A00000900098012843D12348006840F01000C0
:1018B000214908600846006820F0030008600846D7
:1018C000006840F0020008601A4840681949486002
:1018D0000846406848600846406840F480604860B8
:1018E0000846406820F47C1048600846406840F490
:1018F000E81048600846006840F08070086000BF4B
:101900000C48006800F000700028F9D009484068D1
:1019100020F00300074948600846406840F0020094
:10192000486000BF0348406800F00C000828F9D167
:101930000CBD0000001002400020024070B50546BA
:101940000C46422000F020FC284600F01DFC8320BD
:1019500000F01AFC432000F017FC204600F014FCB5
:10196000832000F011FC70BD10B50020FFF7CCFD06
:101970000121C805FFF7A8FD10BD2DE9F04107467C
:101980000C4615461E46422000F0FEFB384600F08D
:10199000FBFB284600F0F8FB432000F0F5FB204657
:1019A00000F0F2FB304600F0EFFBBDE8F0810000F4
:1019B00038B501242948006880B2001D284931F853
:1019C000100080B201EB4000009026480068007AC9
:1019D000092832D0009800782249096808700098D8
:1019E000401C0090009800781E49096848700098D3
:1019F000401C0090009800EB44000090009931F8E2
:101A0000020B0091FEF736FC1649096848800098E1
:101A100000EB44000090009931F8020B0091FEF7B2
:101A200029FC104909688880009800EB4400009068
:101A3000009800880B490968C88001200949096895
:101A4000087208480068C08810B9FFF71FFC01E061
:101A5000FEF760FEFFF7F4FC38BD0000505C00406C
:101A600000600040280000202DE9F047544800683D
:101A7000007800F07F08B8F1000F0AD150480068E4
:101A8000407A00F0DF004E49096848720020BDE846
:101A9000F087B8F1020F7CD149480068408818B936
:101AA00047480068007908B10220F0E7DFF8149198
:101AB00043480068477927F080052C464048006875
:101AC000407900F0800038B13F4901EB8400D0F844
:101AD000000C00F0300606E03B4901EB8400D0F832
:101AE000000C00F4405699F80000A84204D91EB139
:101AF00033480068807A08B90220C8E707F0800000
:101B000080B1314901EB8400D0F8000C00F03000C6
:101B100010284BD1E0B2FEF711FDE0B23021FFF703
:101B20004DFE43E0284901EB8400D0F8000C00F49E
:101B30004050B0F5805F39D1E4B9244A92F82C10B6
:101B4000E0B2FFF7BDFD204A02EB8401D1F8001C92
:101B50004BF68F7201EA020080F4805080F400504E
:101B600040F4004141F08001174B03EB8402C2F8BE
:101B7000001C1BE0E0B2FEF7C7FC134A02EB840135
:101B8000D1F8001C4BF68F7201EA020080F48050FD
:101B900000E011E080F4005040F4004141F0800189
:101BA000094B03EB8402C2F8001C00BF0849096816
:101BB0004869804700206AE700BF022067E700000D
:101BC00028000020AC00002000500040B0000020A1
:101BD0003400002010B504462CB9012006490968DC
:101BE0000882002010BD054909680868804702483E
:101BF00000680A30F6E700002800002034000020CA
:101C000010B5024606480068438A32B98888C01A6F
:101C1000034C24682082002010BD08681844FBE7AC
:101C20002800002010B504462CB901200649096897
:101C30000882002010BD054909688868804702486D
:101C400000680C30F6E70000280000203400002077
:101C500010B504462CB902203949096808820020D1
:101C600010BD00203749088035480068007800F032
:101C70007F0018BB32490968487A00F0200131B171
:101C80003049097841F002012E4A117005E02D49D2
:101C9000097801F0FD012B4A117000F0400131B1CB
:101CA0002849097841F00101264A117005E02549CB
:101CB000097801F0FE01234A11703AE020480068DB
:101CC000007800F07F00012801D11E48C8E71C48B9
:101CD0000068007800F07F00022828D1184A1268B6
:101CE000517901F00F0001F080027AB1164B03EB3D
:101CF0008002D2F8002C02F03002102A16D1114ACC
:101D0000127842F001020F4B1A700FE00E4B03EBFA
:101D10008002D2F8002C02F44052B2F5805F05D167
:101D2000084A127842F00102064B1A7001E00020C6
:101D300096E70649096808698047024890E700006D
:101D4000280000201E000020005000403400002029
:101D500010B50E480068C0780D494978884213DCF8
:101D60000A480068807878B908480068808858B9BF
:101D700006480068C07805490968887205490968FD
:101D800048688047002010BD0220FCE728000020A2
:101D9000AC0000203400002010B507480068407AED
:101DA00040F0200004490968487204490968C8697C
:101DB0008047002010BD00002800002034000020D3
:101DC0002DE9F0412E480068467926F080073C4610
:101DD0002B480068407900F0800038B1294901EBB8
:101DE0008400D0F8000C00F0300506E0254901EB36
:101DF0008400D0F8000C00F4405523480078A0423D
:101E000008D91F480068408820B91DB11C480068E7
:101E1000807A10B90220BDE8F08106F08000A0B100
:101E2000184A02EB8401D1F8001C48F6BF7201EA9F
:101E3000020080F0100040F4004141F08001114B9D
:101E400003EB8402C2F8001C14E00E4A02EB84018A
:101E5000D1F8001C4BF68F7201EA020080F480502A
:101E600040F4004141F08001064B03EB8402C2F8CC
:101E7000001C00BF05490968886980470020CAE73F
:101E80002800002000500040AC000020340000205A
:101E900010B5174B1B68D978154B1B685879154B33
:101EA0001B689A699047044611480068807AE8B137
:101EB0003CB90F480068007918B90D48006880786F
:101EC00008B1022010BD8CB90B490968C868804769
:101ED00007480068407906490968C87204480068E4
:101EE000C0780349096808730020EBE70220E9E79E
:101EF000280000202C0000203400002038B50025E8
:101F0000002000902148006884B200BF09E0204909
:101F100001EB8500D0F8000C80B21E4941F8250085
:101F20006D1C082DF3D344F480641848046044F019
:101F30000104046024F00104046000BF1348001D84
:101F4000006800F480600028F8D04FF6FF300F4999
:101F5000091D0860002509E00E4850F8250080B2F0
:101F60000B4A02EB8501C1F8000C6D1C082DF3D360
:101F700044F0080405480460006884B244F0040496
:101F800002480460FEF7C8FD38BD0000405C004018
:101F900000500040F8070020042808D14FF0E0214D
:101FA000096941F004014FF0E022116107E04FF0B0
:101FB000E021096921F004014FF0E022116170472E
:101FC0007047000010B51348006840F00100114947
:101FD000086008464068104908400E4948600846B5
:101FE00000680E4908400B4908600846006820F464
:101FF000802008600846406820F4FE0048604FF4E6
:102000001F008860FFF726FC4FF00060044908605D
:1020100010BD0000001002400000FFF8FFFFF6FEB8
:1020200008ED00E031B500210846FFF787FC44F2D7
:10203000104408E09DF8010000F0C6F89DF800008B
:1020400000F0C2F8641E002CF4D138BD10B5642035
:1020500000F0C8FC2C2000F097F8142000F0C2FC1F
:10206000022000F091F8012000F08EF8142000F01A
:10207000B9FC262000F088F8012000F085F8142033
:1020800000F0B0FC262000F07FF8092000F07CF87A
:10209000142000F0A7FC262000F076F80B2000F0BA
:1020A00073F8142000F09EFC262000F06DF80F203D
:1020B00000F06AF8142000F095FC202000F064F88D
:1020C000012000F061F8282000F05EF8012000F007
:1020D0005BF8102000F058F80B2000F055F8402075
:1020E00000F052F8812000F04FF8342000F04CF856
:1020F000042000F049F8DA2000F03CF8532000F00A
:1021000043F8002000F040F8302000F03DF80020B7
:1021100000F03AF8552000F037F8002000F034F8CD
:10212000422000F031F8002000F02EF8832000F06B
:102130002BF8432000F028F8002000F025F8832039
:1021400000F022F8532000F01FF8002000F01CF8E7
:102150004FF4967000F046FC512000F015F8002076
:10216000FFF760FF40210248FEF7B2FD10BD0000FE
:10217000000C014010B504462A2000F005F8E0B23A
:1021800000F002F810BD000010B5044620210C48F4
:10219000FEF79CFD2046FEF7E3FF10210848FEF7FE
:1021A00095FD4FF400410748FEF792FD4FF40041C2
:1021B0000448FEF78BFD20210148FEF789FD10BD84
:1021C000000C01400008014010B5044620210C48D5
:1021D000FEF77CFD2046FEF7C3FF10210848FEF7FE
:1021E00077FD4FF400410748FEF772FD4FF40041C0
:1021F0000448FEF76BFD20210148FEF769FD10BD84
:10220000000C01400008014010B540F225511D4866
:1022100000F04CF810B31B4800F072F8C4B21A4832
:10222000008800F40040C8B91748008800F48040D6
:1022300060B10A2C03D000201349088020E0124826
:10224000008840F400401049088019E00D2C06D1A8
:102250000D48008840F480400B49088010E00A488F
:102260000088C0F30D0009490C5407480088401C41
:102270000549088008460088C72801DD002008803D
:1022800010BD0000003801401C000020400100206B
:1022900000200449A1F80204A1F8000402490880C2
:1022A00001207047240200203C00002070B5024647
:1022B000002400230025002040F66A16B14200D118
:1022C00000BFC1F3421501F01F03012606FA03F314
:1022D000012D02D19689334006E0022D02D1168AE3
:1022E000334001E0968A33400C12012606FA04F4CA
:1022F0001688344013B10CB1012000E0002070BDFD
:1023000001468888C0F30800704710B54FF480205C
:10231000FEF7B2FB10BD704710B5084808490860C9
:1023200002200968087207480749086007480849F9
:102330000860054909680868804710BD0802002048
:1023400028000020B00000202C000020E000002029
:10235000340000200EB54FF48020FEF78DFB4FF4C3
:102360008020009008208DF8050001208DF80600DF
:102370006846FEF787FB14208DF8080001208DF8D1
:10238000090000208DF80A0001208DF80B0002A83A
:10239000FEF73AFF2A208DF8080000208DF809008A
:1023A00002A8FEF731FF0EBD10B588B000246948C1
:1023B0000068694908800846008800F40070674991
:1023C0000988084050B14FF6FF50624908606448E0
:1023D0000078401C62490870FFF716F95E480088D3
:1023E00000F400405D490988084008B1FDF748FF46
:1023F0005948008800F4806058490988084030B185
:102400004FF6FF30534908605649486880475248A4
:10241000008800F4005051490988084018B14DF671
:10242000FF704C4908604C48008800F480504B49CC
:102430000988084030B14EF6FF7046490860002018
:10244000FFF768F84448008800F4006043490988B1
:10245000084060B14448007810B1FFF74FFD02E03A
:102460000220FFF757F84FF2FF703A4908603A48E8
:10247000008800F48070394909880840002866D037
:102480004FF6FF6033490860081D006800F4004003
:10249000002856D035480068401C3449086008467A
:1024A0000068032850D92B48001F006800F008007E
:1024B000002849D12748001F006880B22C490860D5
:1024C000002408E02B4901EB8400D0F8000C80B216
:1024D0004DF82400641C082CF4D32548006840F013
:1024E0000100234908600846006880B21949091FA5
:1024F00008601F48006820F001001D490860084678
:10250000006880B21349091F086000BF11480068C5
:1025100000F480600028F9D04FF6FF300D490860C4
:10252000002408E05DF8240080B2124A02EB840126
:10253000C1F8000C641C082CF4D300200B4908607F
:1025400002E00020094908600720FEF7E3FF08B019
:1025500010BD0000445C00405C0000203200002000
:102560005E000020B0000020380100206000002044
:10257000640000200050004010B5FFF715FF10BDAB
:1025800010B5044601210420FEF7AEFF3CB10F4810
:10259000006880B220F002000C49086014E00B488B
:1025A000006880B240F002000849086008480068EE
:1025B00020F47F20064908600846006840F44C304B
:1025C000086000200349086010BD0000405C004026
:1025D00004080140B00121420020064908604FF480
:1025E0003F4005490880084600880249091F0860E5
:1025F00000207047445C0040320000202DE9F0418B
:1026000004460E46002504F07F00FEF773FB0546E6
:1026100004F07F00FEF75EFB07462A463946304647
:10262000FEF7F8FE2846BDE8F081000030B503460D
:102630000A46002133E0585C1A4C248804F4004414
:102640005CBB184C248804F4804464B10A2803D08D
:102650000024144D2C8020E0124C248844F40044C3
:10266000104D2C8019E00D2806D10E4C248844F41E
:1026700080440C4D2C8010E00A4C2488C4F30D04D7
:10268000094D2855074C2488641C064D2C802C4687
:102690002488C72C01DD00242C804C1CE1B291421F
:1026A000C9DB30BD3C000020F00600200A49B1F82B
:1026B0000014094A50541146B1F80014491CA2F8FC
:1026C00000141146B1F80014B1F5806F02D1002159
:1026D000A2F80014704700002402002000BFFEE7AB
:1026E000F0B5144604F1010C4FEA6C07DFF824C082
:1026F0000CEB41033D460AE00678401C90F800C010
:1027000046EA0C2223F8022B9B1C401C6D1E002D58
:10271000F2D1F0BD0060004070B504460025212CC8
:1027200008D112480068007800F07F0021280ED1FF
:102730000F4D0CE0202C0AD10C480068007800F006
:102740007F00212800D10B4D20200B4908700DB9C6
:10275000022070BD054800688561002103480068BB
:1027600041820020A8470020F3E700002800002055
:10277000A527000835290008A000002010B5044650
:1027800002492046FFF73CFA10BD00000C01002072
:1027900010B5044602492046FFF732FA10BD00008A
:1027A00004010020014629B90820034A126810825A
:1027B000002070470148FCE728000020A40000200A
:1027C00070B5054606480068C478042C01DD002079
:1027D00070BD044800EBC4012846FFF711FAF7E783
:1027E00028000020140100200246002901DD0220FB
:1027F0007047012A01DD0220FAE70020F8E7000017
:10280000014608480068007800F07F00212807D1C1
:10281000022901D100207047222901D10020FAE7C6
:102820000220F8E72800002010B50020344909688C
:1028300088723448C07932490968487200203049AA
:102840000968C872FEF7FAFE4FF400710020FEF727
:10285000EFFF10210020FEF7B1FF40210020FEF71E
:102860001DFF80210020FEF78BFF0020FDF780FE7A
:10287000254890F82C100020FEF722FF0020FEF7DC
:1028800065FF00210120FEF7D3FFC0210120FEF7E4
:1028900077FF20210120FEF791FF00210120FEF7A4
:1028A00035FF4FF4C0610220FEF7C2FF4FF4807184
:1028B0000220FEF765FF00210220FEF727FF2021FE
:1028C0000220FEF77BFF00210320FEF7B1FF4FF44B
:1028D00088710320FEF7E2FE40210320FEF7F0FEA0
:1028E0004FF440510320FEF711FF00210320FEF7B3
:1028F00065FF0020FEF7AAFE01200449086010BD14
:102900002800002092430008B0000020340100207D
:102910000348817A11B10521024A11607047000015
:10292000080200203401002004200149086070479B
:1029300034010020014629B90820034A1268108298
:10294000002070470148FCE728000020A400002078
:1029500010B505480078202804D1FFF799FC002025
:102960000149087010BD0000A00000207047000061
:1029700010B5FEF7E1F90020054909688872FEF7F5
:1029800083FDFFF729FE00200249086010BD00000A
:102990002800002034010020014600BF70470000DD
:1029A00010B56FF00400FFF7F7FA0A4800680A490B
:1029B000B0FBF1F0094908700846007800EB4001CF
:1029C000C1EBC0104FF6FF7101EAC0000449088056
:1029D00010BD00000000002000127A00140000204A
:1029E000160000200146114A12884A434FF0E023A6
:1029F0005A6100229A611A46126942F001021A6174
:102A000000BF4FF0E022106900F001021AB100F49B
:102A10008032002AF5D04FF0E022126922F0010244
:102A20004FF0E0231A6100229A61704716000020DF
:102A300008B5FFF7B5FF4FF4A060FEF71DFCFEF7E9
:102A4000B1FBC820FFF7CEFFFFF700FB0020FFF728
:102A500097FD6420FFF7C6FF0120FFF791FDFEF709
:102A600083FFFFF777FCFFF757FC66E05A20FFF77C
:102A70001DFE0020FFF7D6FA4FF4784010232FA256
:102A8000022100901920FEF739FB4FF47A70FFF70E
:102A9000A9FF4FF4FC6010232BA2142100900F20FB
:102AA000FEF72CFB4FF61F0010232AA224210090D2
:102AB0000020FEF723FB4FF47A70FFF793FF4FF6E9
:102AC000FF70102328A2462100900520FEF716FB78
:102AD0004FF6E070102325A2462100902320FEF738
:102AE0000DFB40F21F50102323A2562100902820F6
:102AF000FEF704FB4FF47A70FFF774FF0020FFF736
:102B000091FA4FF4784014230F22002100900846D8
:102B1000FEF785F94FF4FC601E2323221421009058
:102B20000846FEF7D2F91F230D2232210846FEF790
:102B3000F1F94FF47A70FFF755FF97E74C434420C3
:102B4000544553540000000073746D3332663130C5
:102B5000330000005472616E736973746F722D5488
:102B6000657374657200000062793A00323534355D
:102B700038383931363700006D7964696769740017
:102B800001B59DF80100FEF7EBFA4FF400410B4848
:102B9000FEF79EF84FF400410848FEF797F89DF8BD
:102BA0000000FEF7DDFA4FF400410448FEF790F80C
:102BB0004FF400410148FEF789F808BD00080140C4
:102BC0000000000000000000000000000000000005
:102BD0003F400000000000000000300040003000D6
:102BE0004000000009000BC03D000BC03D00090083
:102BF00018C024407FE0224031800000180024C02B
:102C00001B000D803240018003801C4027401C8047
:102C100007400040100060000000000000000000BD
:102C20000000000000001F802040402000004020E5
:102C300020401F8000000000090006001F800600E1
:102C400009000000040004003F80040004000000AC
:102C500000100060000000000000000004000400FC
:102C60000400040004000000000000400000000018
:102C700000000000002001C00600380040000000F5
:102C80001F802040204020401F8000000000104096
:102C90003FC000400000000018C0214022402440F6
:102CA0001840000010802040244024401B80000079
:102CB00002000D0011003FC0014000003C80244094
:102CC00024402440238000001F80244024403440BE
:102CD000038000003000200027C0380020000000E2
:102CE0001B802440244024401B8000001C0022C084
:102CF000224022401F800000000000000840000029
:102D0000000000000000000004600000000000005F
:102D1000000004000A001100208040400900090062
:102D20000900090009000000000040402080110057
:102D30000A000400180020002340240018000000AE
:102D40001F802040274029401F400000004007C04E
:102D500039000F0001C0004020403FC02440244003
:102D60001B8000001F802040204020403080000059
:102D700020403FC0204020401F80000020403FC036
:102D800024402E4030C0000020403FC024402E0090
:102D9000300000000F0010802040224033800200ED
:102DA00020403FC0040004003FC02040204020409D
:102DB0003FC02040204000000060202020203FC075
:102DC0002000200020403FC024400B0030C02040A5
:102DD00020403FC020400040004000C03FC03C00B9
:102DE00003C03C003FC0000020403FC00C40230017
:102DF0003FC020001F802040204020401F80000056
:102E000020403FC024402400180000001F802140C3
:102E1000214020E01FA0000020403FC024402600A9
:102E200019C0004018C024402440224031800000D6
:102E3000300020403FC020403000000020003F8094
:102E4000004000403F80200020003E0001C00700FD
:102E500038002000380007C03C0007C038000000E0
:102E6000204039C0060039C0204000002000384012
:102E700007C0384020000000304021C026403840C4
:102E800020C00000000000007FE040204020000043
:102E9000000070000C000380004000000000402093
:102EA00040207FE0000000000000200040002000E3
:102EB00000000000001000100010001000100010B2
:102EC0000000000040000000000000000000028040
:102ED0000540054003C0004020003FC004400440BE
:102EE000038000000000038004400440064000000E
:102EF00000000380044024403FC0004000000380E5
:102F00000540054003400000000004401FC024406D
:102F100024402000000002E0055005500650042027
:102F200020403FC00440040003C0004000000440B3
:102F300027C000400000000000100010041027E02F
:102F40000000000020403FC00140070004C00440D2
:102F5000204020403FC000400040000007C0040067
:102F600007C0040003C00000044007C00440040080
:102F700003C00040000003800440044003800000C0
:102F8000041007F004500440038000000000038098
:102F90000440045007F00010044007C00240040041
:102FA00004000000000006400540054004C0000089
:102FB000000004001F80044000400000040007805F
:102FC0000040044007C000400400070004C0018026
:102FD00006000400060001C0070001C00600000052
:102FE000044006C0010006C00440000004100710A1
:102FF00004E00180060004000000044005C0064013
:10300000044000000000000004007BE040200000BD
:10301000000000000000FFF0000000000000402061
:103020007BE0040000000000400080004000200021
:103030002000400000000000000000000000000030
:10304000000000000000000000001FCC000C000089
:1030500000000000000008003000600008003000A0
:1030600060000000022003FC1E20022003FC1E2042
:103070000220000000000E1811043FFF10840C789D
:10308000000000000F0010840F3800C0077818847B
:103090000078000000780F8410C411240E9800E41A
:1030A00000840008080068007000000000000000B4
:1030B0000000000000000000000007E018182004D5
:1030C00040020000000040022004181807E0000041
:1030D000000000000240024001800FF00180024029
:1030E000024000000080008000800FF80080008017
:1030F000008000000001000D000E00000000000034
:10310000000000000000008000800080008000803F
:10311000008000800000000C000C00000000000097
:10312000000000000000000600180060018006009A
:1031300018002000000007F0080810041004080818
:1031400007F000000000080408041FFC000400044D
:103150000000000000000E0C101410241044118414
:103160000E0C000000000C18100411041104128849
:103170000C700000000000E00320042408241FFC61
:103180000024000000001F9810841104110410880E
:1031900010700000000007F008881104110418885E
:1031A0000070000000001C00100010FC13001C0048
:1031B0001000000000000E381144108410841144E7
:1031C0000E38000000000700088C104410440888E6
:1031D00007F00000000000000000030C030C0000DA
:1031E00000000000000000000001010600000000D7
:1031F00000000000000000800140022004100808C8
:1032000010040000022002200220022002200220DE
:1032100002200000000010040808041002200140F1
:103220000080000000000E001200100C106C1080D6
:103230000F00000003E00C1813E4142417C408283E
:1032400007D000000004003C03C41C40074000E419
:10325000001C000410041FFC1104110411040E884A
:103260000070000003E00C18100410041004100893
:103270001C10000010041FFC1004100410040808A7
:1032800007F0000010041FFC1104110417C41004FF
:103290000818000010041FFC1104110017C01000D2
:1032A0000800000003E00C181004100410441C78FF
:1032B0000040000010041FFC108400800080108477
:1032C0001FFC10040000100410041FFC1004100464
:1032D0000000000000030001100110011FFE10009B
:1032E0001000000010041FFC110403801464181C5B
:1032F0001004000010041FFC10040004000400046B
:10330000000C000010041FFC1F0000FC1F001FFC2D
:103310001004000010041FFC0C04030000E010184F
:103320001FFC100007F0080810041004100408081F
:1033300007F0000010041FFC108410801080108023
:103340000F00000007F0081810241024101C080AB1
:1033500007F2000010041FFC1104110011C011300D
:103360000E0C000400000E1C110410841084104484
:103370001C3800001800100010041FFC100410007E
:103380001800000010001FF81004000400041004CE
:103390001FF8100010001E0011E0001C00701380C8
:1033A0001C0010001FC0103C00E01F0000E0103C9B
:1033B0001FC000001004180C163401C001C01634E0
:1033C000180C100410001C00130400FC13041C0053
:1033D000100000000804101C1064108413041C0466
:1033E000101800000000000000007FFE40024002B4
:1033F00040020000000030000C0003800060001C50
:103400000003000000004002400240027FFE000076
:1034100000000000000000002000400040004000CC
:103420002000000000010001000100010001000176
:1034300000010001000040004000200000000000EA
:1034400000000000000000980124014401440144F0
:1034500000FC000410001FFC008801040104008827
:1034600000700000000000700088010401040104E5
:1034700000880000000000700088010401041108A9
:103480001FFC0004000000F8014401440144014411
:1034900000C800000000010401040FFC1104110425
:1034A00011001800000000D601290129012901C9D5
:1034B0000106000010041FFC00840100010001044B
:1034C00000FC000400000104190419FC00040004BD
:1034D000000000000000000300010101190119FEB5
:1034E0000000000010041FFC0024004001B4010C87
:1034F000010400000000100410041FFC000400047C
:1035000000000000010401FC0104010001FC0104B1
:10351000010000FC010401FC008401000100010421
:1035200000FC0004000000F801040104010401048F
:1035300000F80000010101FF00850104010400887A
:103540000070000000000070008801040104010503
:1035500001FF00010104010401FC008401040100D9
:1035600001800000000000CC01240124012401247A
:103570000198000000000100010007F801040104A7
:1035800000000000010001F800040004000401082C
:1035900001FC0004010001800170000C00100160BA
:1035A0000180010001F0010C003001C00030010C6D
:1035B00001F0010000000104018C00740170018C15
:1035C00001040000010101810171000E0018016079
:1035D0000180010000000184010C013401440184D8
:1035E000010C0000000000000000000001003EFC93
:1035F000400240020000000000000000FFFF000049
:10360000000000000000400240023EFC01000000FB
:1036100000000000000060008000800040004000CA
:10362000200020000000000000000000000000005A
:10363000000000000000000000000000000000008A
:10364000000000000000000000000000000000007A
:10365000000000000000000F80380FFE380F803897
:10366000000000000000000000000000000000005A
:1036700000000100000600000C00003800003100CE
:10368000000600000C0000380000300000000000C0
:103690000000000061800067F807F9800061800089
:1036A00061800061800061800067F807F980006137
:1036B0008000000000000000000001C0E003E0F016
:1036C0000630080418081FFFFE040E080787F003E1
:1036D00081E000000000000001F000060C0004047E
:1036E00008060C7001F9C0000E00003BE000EC1869
:1036F000070808040C180003E00000000001E000C7
:1037000007F003F818041C0804170807E1D003C0E9
:10371000E00023B0003C080020080000100000007A
:103720000000000100003100003200001C00000019
:103730000000000000000000000000000000000089
:103740000000000000000000000000000000000079
:10375000000000007F0001FFC00780F00C0018107F
:103760000004200002000000000000200002100001
:10377000040C00180780F001FFC0007F000000006B
:103780000000000000000000000000000000000039
:103790004200006600006600003C0000180003FFC5
:1037A000C0001800003C00006600006600004200F7
:1037B00000000000080000080000080000080000E9
:1037C000080001FFC0000800000800000800000811
:1037D000000008000000000000010000310000327D
:1037E00000001C00000000000000000000000000BD
:1037F00000000000000000000000000008000008B9
:103800000000080000080000080000080000080090
:103810000008000008000008000000000000000090
:1038200000000000380000380000380000000000F0
:103830000000000000000000000000000000000088
:1038400000000000000600001C0000700001800065
:103850000E0000380000C0000700001C000030000F
:1038600000000000000000007F8001FFE003807086
:103870000600180400080400080600180380700100
:10388000FFE0007F80000000000000000000010059
:103890000801000801000803FFF807FFF80000080E
:1038A0000000080000080000000000000000000107
:1038B000C03802C058040098040118040218040417
:1038C00018061C1803F81801E0F8000000000000BA
:1038D00000000001C0E003C0F00400080408080470
:1038E000080806180803F41801E7F00001E00000DA
:1038F00000000000000000000300000D00001100A7
:1039000000610000810803010807FFF80FFFF800BD
:1039100001080001080000000000000000E007FCB2
:10392000D006080806100806100806100806183801
:10393000060FF00607C000000000000000000000B5
:103940003F8001FFE00384300208180410080410CF
:1039500008041008071810030FF00007C00000004B
:1039600000000000000003C0000700000600000681
:1039700000F80607F806180006E000070000060039
:103980000000000000000001E1E003F7F006341041
:10399000041808041808040C08040C080616180378
:1039A000F3F001C1E000000000000000F80003FC9B
:1039B0003003063804020804020804020804041054
:1039C0000308F001FFC0007F0000000000000000BD
:1039D00000000000000000000000000070380070CF
:1039E00038007038000000000000000000000000F7
:1039F00000000000000000000000000000000000C7
:103A0000301A00301C000000000000000000000020
:103A1000000000000000000000000008000014008A
:103A200000220000410000808001004002002004CC
:103A30000010080008000000000000002100002124
:103A400000002100002100002100002100002100D1
:103A50000021000021000021000000000000000003
:103A6000000008000804001002002001004000804F
:103A70008000410000220000140000080000000047
:103A800000000003C00004C0000400000800380863
:103A90000F380808380810000C300007E00003C099
:103AA00000000000000000003F8000FFE003807085
:103AB000020F1006708804C088048308047F8802FF
:103AC000C09003012000FE40000008000018000123
:103AD000F8003E0801C20007020007E20000FE00F5
:103AE000001FC80001F800003800000804000807A3
:103AF000FFF807FFF8040808040808040808040889
:103B00000806180803F41801E7F00001E0000000BF
:103B1000000000003F8001FFE003807002001804F5
:103B200000080400080400080400100600200780B4
:103B3000C000000004000807FFF807FFF8040008B1
:103B4000040008040008040018020010038070013B
:103B5000FFE0007F8000000004000807FFF807FF77
:103B6000F8040808040808040808040808043E08C3
:103B700004000806001801006000000004000807A7
:103B8000FFF807FFF8040808040800040800040808
:103B900000043E0006000006000001800000000056
:103BA000000000003F8001FFE00380700600180461
:103BB00000080402080402080203F00783F0000270
:103BC0000000020004000807FFF807FFF8040808D7
:103BD00000080000080000080000080004080807AA
:103BE000FFF807FFF80400080000000000000400D0
:103BF0000804000804000807FFF807FFF80400089D
:103C0000040008040008000000000000000000009C
:103C10000006000007000001040001040001040088
:103C20000307FFFE07FFFC0400000400000400007F
:103C300004000807FFF807FFF8040C08001800004C
:103C40003E0004C7800503C80600F80400380400DD
:103C50001800000804000807FFF807FFF804000830
:103C6000000008000008000008000008000008002C
:103C7000001800006000000004000807FFF807803B
:103C80000807FC00007FC00003F80007C0007800B0
:103C900007800807FFF807FFF8040008040008077A
:103CA000FFF807000803C00000E000003800001E15
:103CB000000007000001C00400F007FFF804000046
:103CC000000000007F8001FFE00380700600180400
:103CD000000804000806001803003001FFE0007F20
:103CE0008000000004000807FFF807FFF80404083C
:103CF000040400040400040400040400060C00038F
:103D0000F80001F000000000000000007F8001FFCB
:103D1000E00380700600880400880400C806003CA8
:103D200003003E01FFE6007F840000000400080756
:103D3000FFF807FFF8040808040800040C00040F4B
:103D400000040BC00610F003F03801E00800000882
:103D500000000001E0F803F03006301004180804F9
:103D60001808040C08040C080206180207F0078162
:103D7000E0000000018000060000040000040000D4
:103D800004000807FFF807FFF80400080400000417
:103D9000000006000001800004000007FFE007FFAC
:103DA000F0040018000008000008000008000008E7
:103DB00000000804001007FFE004000004000006F3
:103DC000000007E00007FE00041FE00001F800000B
:103DD000380001E0043E0007C000060000040000B7
:103DE00004000007E00007FFC0041FF80007C00739
:103DF000F80007FF80043FF80007C004F800070040
:103E00000004000000000004000806001807C07845
:103E100005F1C8003E00001F800463E80780F80633
:103E200000180400080000000400000600000780DD
:103E30000007E008047C08001FF80007F8001808D5
:103E400004E0080700000600000400000000000174
:103E500000080600380400F80403E8040F08047C96
:103E60000805F00807C008070018040060000000FB
:103E70000000000000000000000000000000003F03
:103E8000FFFE20000220000220000220000220008D
:103E90000200000000000000000008000007000011
:103EA00000C0000038000006000001C00000300023
:103EB000000E0000010000000000000000002000D3
:103EC000022000022000022000022000023FFFFE2C
:103ED00000000000000000000000000000000000E2
:103EE000000000000008000010000030000020006A
:103EF000003000001000000800000000000000007A
:103F000000000100000100000100000100000100AC
:103F1000000100000100000100000100000100009C
:103F2000010000010000000000000000002000006F
:103F30002000001000001000000000000000000041
:103F400000000000000000000000000000F0001968
:103F5000F8001B180022080026080024080024107E
:103F6000003FF8001FF800000800001800000004DF
:103F7000000007FFF80FFFF00018180010080020DD
:103F800008002008003018001FF0000FC0000000DB
:103F90000000000007C0001FF000183000200800DB
:103FA0002008002008003C08001C100000600000F1
:103FB000000000000000000007C0001FF0003818DB
:103FC00000200800200800200804101007FFF80F48
:103FD000FFF00000100000000000000000000007DB
:103FE000C0001FF000123000221800220800220832
:103FF000003208001E10000E20000000000000002B
:10400000200000200800200801FFF803FFF8062028
:104010000804200804200807200003000000000016
:1040200000000000000E000E6E001FF30031B10012
:1040300020B10020B1003191001F13002E1E00207E
:104040000E00300000000004000807FFF80FFFF822
:10405000001008002000002000002008003FF800A9
:104060001FF8000008000000000000000000002011
:1040700008002008002008063FF8063FF800000866
:104080000000080000080000000000000000000020
:1040900000000000030000030020010020010020B8
:1040A00003063FFE063FFC00000000000000000089
:1040B00000000004000807FFF80FFFF80001880067
:1040C0000300002FC00038F800203800200800004E
:1040D00008000000000000000000040008040008C0
:1040E00004000807FFF80FFFF800000800000800B0
:1040F0000008000000000000002008003FF8003F1A
:10410000F8001008002000003FF8003FF8001008F9
:10411000002000003FF8003FF80000080000000009
:104120002008003FF8003FF80010080010000020B1
:1041300000002008003FF8001FF800000800000001
:104140000000000007C0000FF00018300030080029
:104150002008002008003008001830000FF0000789
:10416000C0000000000000002001003FFF003FFFF2
:10417000001011002009002008002008003038003D
:104180001FF0000FC00000000000000007C0001F6B
:10419000F000381800200800200800200900101145
:1041A000001FFF003FFF000001000000002008008A
:1041B0002008002008003FF8003FF8000808001021
:1041C000080020080020000030000030000000003F
:1041D000000000000000000C78001E1800330800EA
:1041E00023080021080021880021980030F00038C1
:1041F00060000000000000002000002000002000FF
:1042000000FFF003FFF8002008002008002008004D
:104210000030000000000000000000002000003F0F
:10422000F0007FF8000018000008000008002010CF
:10423000003FF8007FF000001000000000000000C8
:104240002000003000003C00003F800023F0000010
:1042500078000070002380003C0000300000200047
:10426000002000003C00003FE00023F80000E000D8
:104270002700003E00003FE00021F80001E0003E82
:10428000000020000000000020080020080038384E
:10429000003E680027800003C8002CF80038380072
:1042A000201800200800000000000000200000305E
:1042B00003003C01003F830023EC000070002380DA
:1042C000003C000020000020000000000000000072
:1042D00000000038080020380020F80023E8002FF4
:1042E00088003E0800380800201800007000000018
:1042F00000000000000000000000000000000000BE
:1043000008000014001FF7FC300006200002000027
:10431000000000000000000000000000000000009D
:10432000000000000000FFFFFF0000000000000090
:10433000000000000000000000000000000020005D
:10434000023000061FF7FC00140000080000000007
:104350000000000000000000000000000000001845
:10436000000060000040000040000020000010003D
:10437000000800000400000400000C000010000011
:1043800012010002020000408304405700020102B3
:10439000030109024300020100C0320904000001C8
:1043A000020201000524001001052401000104247B
:1043B00002020524060001070582030800FF090424
:1043C0000100020A00000007050302400000070583
:1043D0008102400000040309042603530054004DE9
:1043E000006900630072006F0065006C0065006387
:1043F00000740072006F006E006900630073003289
:1044000003530054004D0033003200200056006971
:104410000072007400750061006C00200043004FC2
:10442000004D00200050006F00720074002000203A
:10443000000000005444000800000020400100007B
:1044400028010008DC44000840010020380D00006D
:10445000840100081184A24A0400092A010203040D
:1044600006070809141A03531254124D1233021F7F
:104470003213C9090C1C080712040B10590A1451F5
:1044800033C20112081A0407137129140829281BC2
:104490000851081A6D041319271B0801101AE9089E
:1044A0001A91041A7D041AC10441324029441A1198
:1044B000280916741A291C1380433308121A92080B
:1044C00032431AD50832041AD90832261AFF0829AD
:0C44D000E0223E73201A299241000000F7
:04000005080000ED02
:00000001FF
