:020000040800F2
:1000000048070020CD010008D90A00086D05000846
:10001000D50A000875020008F70F0008000000006C
:10002000000000000000000000000000250B000898
:100030007902000800000000DB0A0008990C0008A3
:10004000E7010008E7010008E7010008E7010008F0
:10005000E7010008E7010008E7010008E7010008E0
:10006000E7010008E7010008E7010008E7010008D0
:10007000E7010008E7010008E7010008E7010008C0
:10008000E7010008E7010008E7010008E7010008B0
:10009000E7010008E7010008E7010008E7010008A0
:1000A000E7010008E7010008E7010008E701000890
:1000B000E7010008E7010008E7010008E701000880
:1000C000E7010008E7010008E7010008E701000870
:1000D000E7010008110F0008E7010008E701000828
:1000E000E7010008E7010008E7010008E701000850
:1000F000E7010008E7010008E7010008E701000840
:10010000E7010008E7010008E7010008E70100082F
:10011000E7010008E7010008E7010008E70100081F
:10012000E7010008E7010008E7010008E70100080F
:1001300000F002F800F03AF80AA090E8000C8244BF
:100140008344AAF10107DA4501D100F02FF8AFF29C
:10015000090EBAE80F0013F0010F18BFFB1A43F0A5
:1001600001031847043A0100243A0100103A24BF61
:1001700078C878C1FAD8520724BF30C830C144BF0C
:1001800004680C607047000000230024002500264E
:10019000103A28BF78C1FBD8520728BF30C148BFEA
:1001A0000B6070471FB51FBD10B510BD00F033F8D0
:1001B0001146FFF7F7FF00F06BFF00F051F803B4B2
:1001C000FFF7F2FF03BC00F018FF0000094880476A
:1001D00009480047FEE7FEE7FEE7FEE7FEE7FEE729
:1001E000FEE7FEE7FEE7FEE704480549054A064B41
:1001F000704700009D0C00083101000848010020F4
:10020000480700204803002048030020704770473B
:10021000704770477047754600F028F8AE460500F5
:100220006946534620F00700854618B020B5FFF711
:10023000DBFFBDE820404FF000064FF000074FF015
:1002400000084FF0000B21F00701AC46ACE8C009F4
:10025000ACE8C009ACE8C009ACE8C0098D467047FD
:100260000446AFF300802046FFF7A9FF004870471F
:10027000E800002000BFFEE770472DE9F0470025A9
:100280000026A94683237F220021084600F0D6FCE1
:100290004FF0840852E000240FE01F270026C4F12D
:1002A0001F0085B205EB461000EBC7201FFA80F94E
:1002B000484600F0BDFB601CC4B2202CEDDB0024DE
:1002C0000DE01F276600002505EB461000EBC72058
:1002D0001FFA80F9484600F0ABFB601CC4B2202C2A
:1002E000EFDB00240FE0C4F11F0087B23F2600259A
:1002F00005EB461000EBC7201FFA80F9484600F0D6
:1003000097FB601CC4B2202CEDDB002410E000271A
:100310006000C0F13F0086B2254605EB461000EBB9
:10032000C7201FFA80F9484600F082FB601CC4B267
:10033000202CECDBA8F1010000F0FF08B8F1000F61
:10034000A9DCBDE8F0872DE9F0474FF00008C14671
:10035000C24683237F220021084600F06FFC8426DA
:100360001AE0002414E000270EE025464FEA440975
:10037000A04608EB491000EBC5201FFA80FA504652
:1003800000F056FB781CC7B2042FEEDB601CC4B231
:10039000202CE8DB701EC6B2002EE2DCBDE8F08740
:1003A00070B505460E4614463146284600F030FC2E
:1003B000204600F03DFB70BD70B50021084600F0FE
:1003C00027FC2C2509E0842404E04FF4784000F059
:1003D0002FFB641E002CF8DC6D1E002DF3DC2C2599
:1003E00009E0842404E04FF4FC6000F021FB641E6B
:1003F000002CF8DC6D1E002DF3DC2C2608E0842494
:1004000003E01F2000F014FB641E002CF9DC761EB4
:10041000002EF4DC70BD2DE9F041024600250026D7
:10042000002000230024002791F803C00CF00F05E2
:1004300091F803C00CF0100CBCF1000F03D091F840
:1004400002C04CEA050591F800C0BCF1000F31D0A4
:10045000146800202BE04FF0010C0CFA00F3B1F807
:1004600000C00CEA03069E4220D183004FF00F0C1F
:100470000CFA03F7BC4305FA03FC4CEA040491F8B8
:1004800003C0BCF1280F06D14FF0010C0CFA00FCA0
:10049000C2F814C00AE091F803C0BCF1480F05D1BE
:1004A0004FF0010C0CFA00FCC2F810C0401C0828E8
:1004B000D1D31460B1F800C0BCF1FF0F34DD546833
:1004C00000202EE000F1080C4FF0010808FA0CF3B0
:1004D000B1F800C00CEA03069E4221D183004FF020
:1004E0000F0C0CFA03F7BC4305FA03FC4CEA0404B6
:1004F00091F803C0BCF1280F05D100F1080C08FAEF
:100500000CF8C2F8148091F803C0BCF1480F07D171
:1005100000F1080C4FF0010808FA0CF8C2F810803E
:10052000401C0828CED35460BDE8F081416170477B
:10053000016170472DE9F04105460C46267894F894
:100540000180A6F1B000C0EB001101EB401008EBF8
:100550004000A138044901EB4017102229463846D3
:1005600000F0CCFABDE8F0810000040800BFFEE70F
:100570002DE9FF4788B006460F4690460025AA465B
:1005800007F10F0C0CF0FF0306F10F0C0CF0FF024B
:10059000F9B2F0B200F052FB41466846FFF7CAFFDD
:1005A00000242EE03DF8140000F47F451DF814A04F
:1005B0002D124FF6FF7000EA0A2A45EA0A054FF0AD
:1005C000000919E005F4004040B19DF82D0000F04D
:1005D00081FC9DF82C0000F07DFC05E0002000F07F
:1005E00079FC002000F076FC4FF6FF7000EA45052C
:1005F00009F1010000F0FF09B9F1100FE2DB601C06
:10060000C4B2102CCEDB0CB0BDE8F0872DE9FC4164
:1006100005460E4614461F462EE020787E2817DC3D
:10062000782D03DD002506F1100086B2742E01DD61
:10063000002500260020CDE900072278102331464E
:10064000284600F0F9F805F1080085B2641C13E0B3
:10065000702D03DD002506F1100086B2742E01DD39
:10066000002500263B46224631462846FFF780FFFC
:10067000A41C05F1100085B220780028CDD1BDE87A
:10068000FC812DE9FF4F85B081468A46002003900A
:1006900083460798A0EB09050898A0EB0A06CDF859
:1006A0000890CDF804A0002D01DD012705E00DB96B
:1006B000002702E04FF0FF376D42002E02DD4FF0C1
:1006C000010806E016B94FF0000802E04FF0FF38CD
:1006D0007642B54201DD2C4600E03446002004900D
:1006E0001EE0019AD1B2029AD0B2129AFFF758FED8
:1006F000039828440390B3440398A04205DD03986F
:10070000001B0390029838440290A34504DDABEB34
:10071000040B0198404401900498401C80B204905E
:10072000611C04988842DCDD09B0BDE8F08F2DE93A
:10073000F84305460E4617469846089C33463A4607
:10074000314628460094FFF79CFF43462A4631462F
:1007500028460094FFF795FF43463A46414628460F
:100760000094FFF78EFF43463A46314638460094E0
:10077000FFF787FFBDE8F8832DE9F04706460F46EF
:1007800090469A46002445460320A0EB480944E0E1
:100790007A1BD1B23219D0B25246FFF701FE3A1B92
:1007A000D1B27219D0B25246FFF7FAFD3A19D1B25E
:1007B0007219D0B25246FFF7F3FD7A19D1B232194D
:1007C000D0B25246FFF7ECFD7A19D1B2321BD0B24B
:1007D0005246FFF7E5FD3A19D1B2721BD0B252462C
:1007E000FFF7DEFD7A1BD1B2321BD0B25246FFF7C3
:1007F000D7FD3A1BD1B2721BD0B25246FFF7D0FDE3
:10080000641CB9F1000F03DAA000801D814404E0EC
:10081000601B80000A3081446D1EAC42B8DDBDE82B
:10082000F08710B50246012000E050430B00A1F113
:100830000104E1B2F9D110BD2DE9F84F07460D468C
:1008400090461C46AB462046E31704EB5373DB107F
:1008500021464FEAE47C04EB5C7C4FEAEC0CA4EB11
:10086000CC0CBCF1000F02D04FF0010C01E04FF0B6
:10087000000C6344224604EBD27C4FEA6C0C03FB71
:100880000CF3DBB20093A8F1200000F0FF08002673
:100890004EE00C2C07D108EB4800284901EB800002
:1008A00010F8069013E0102C05D1254800EB081035
:1008B00010F806900BE0182C07D108EBC80021496E
:1008C00001EB800010F8069001E0BDE8F88F4FF0D2
:1008D000000A27E009F0800028B1E9B2F8B20B9ACB
:1008E000FFF75EFD06E00A9820B9E9B2F8B20022EF
:1008F000FFF756FD4FEA49604FEA1069681C85B260
:10090000842D00DBE1E7A5EB0B00A04206D15D469C
:10091000781C87B2802F00DBD7E706E00AF10100E0
:1009200000F0FF0ABAF1080FD4DB00BF701CC6B29A
:1009300000988642ADDB00BFC7E7000038230108FE
:10094000AC2701089C2D01082DE9FF4F83B0074615
:1009500091461E46DDE9105A0020029000243AE03C
:10096000301B401EC1B20A20FFF75BFFB9FBF0F05D
:100970000A21B0FBF1F201FB12080298B8B9701E0F
:10098000A04214DDB8F1000F0FD10020AB4605EBFB
:10099000DB71491001FB0471CDE9000A88B22B46D6
:1009A00020220499FFF748FF13E001200290002065
:1009B000AB4605EBDB71491001FB0471CDE9000A80
:1009C00088B208F13001CAB22B460499FFF734FF10
:1009D00000BF601CC4B2B442C2DB07B0BDE8F08FF8
:1009E0002DE9FC4106460F4615461C46DDF82080E1
:1009F00019E00020CDE900082A7823463946304620
:100A0000FFF71AFF6D1C204604EBD07106EB610165
:100A10008EB204EBD4714910C1F18001B14202DC05
:100A20000026381987B228780028E2D1BDE8FC8179
:100A300001B59DF8010000F04DFA9DF8000000F0AE
:100A400049FA08BD06490968C9B2054A116011464C
:100A500009680202D2B21143014A116070470000D6
:100A60000C08014008B501213C2000F037F84FF494
:100A70007F40ADF8000010208DF8030003208DF8B2
:100A8000020069461048FFF7C6FC0120ADF80000DF
:100A900010208DF8030003208DF8020069460B48F2
:100AA000FFF7B9FC3C20ADF8000010208DF80300E2
:100AB00003208DF8020069460548FFF7ACFC0421CD
:100AC0000348FFF733FD08BD00080140000C01405A
:100AD0000010014000BFFEE77047704729B1064A89
:100AE00092690243044B9A6104E0034A926982438B
:100AF000014B9A61704700000010024030B5034678
:100B00000C461546002207E0184600F008F824F8C5
:100B100012009B1C501C82B2AA42F5DB30BD01467C
:100B200008887047704710B500F002F810BD00004B
:100B30000CB50020019000903348006840F48030EC
:100B40003149086000BF3048006800F40030009070
:100B50000198401C0190009818B90198B0F5A06F59
:100B6000F1D12948006800F4003010B10120009054
:100B700001E0002000900098012843D1234800683C
:100B800040F01000214908600846006820F003008A
:100B900008600846006840F0020008601A48406893
:100BA000194948600846406848600846406840F473
:100BB000806048600846406820F47C104860084621
:100BC000406840F4E81048600846006840F08070D3
:100BD000086000BF0C48006800F000700028F9D0E1
:100BE0000948406820F0030007494860084640680B
:100BF00040F00200486000BF0348406800F00C006D
:100C00000828F9D10CBD000000100240002002406D
:100C100070B505460C46432000F03EF9284600F02A
:100C20003BF9832000F038F9422000F035F92046E6
:100C300000F032F9832000F02FF970BD2DE9F0416A
:100C400007460C4615461E46432000F025F9384657
:100C500000F022F9284600F01FF9422000F01CF9AC
:100C6000204600F019F9304600F016F9BDE8F08191
:100C7000042808D14FF0E021096941F004014FF048
:100C8000E022116107E04FF0E021096921F0040141
:100C90004FF0E022116170477047000010B5134813
:100CA000006840F00100114908600846406810499A
:100CB00008400E494860084600680E4908400B4944
:100CC00008600846006820F48020086008464068F4
:100CD00020F4FE0048604FF41F008860FFF723FFF8
:100CE0004FF000600449086010BD00000010024091
:100CF0000000FFF8FFFFF6FE08ED00E031B500212F
:100D00000846FFF785FF44F2104408E09DF8010013
:100D100000F0E0F89DF8000000F0DCF8641E002C04
:100D2000F4D138BD70B5044600210846FFF770FFC6
:100D300044F2104508E0207800F0CCF8641C2078DC
:100D400000F0C8F8641C6D1E002DF4D170BD0000C9
:100D500010B5642000F076F908214948FFF7E6FB5A
:100D6000642000F06FF908214548FFF7E1FB64209B
:100D700000F068F92C2000F08FF8142000F062F9E0
:100D8000022000F089F8012000F086F8142000F01D
:100D900059F9262000F080F8012000F07DF8142099
:100DA00000F050F9262000F077F8092000F074F8E0
:100DB000142000F047F9262000F06EF80B2000F018
:100DC0006BF8142000F03EF9262000F065F80F20A3
:100DD00000F062F8142000F035F9202000F05CF8F3
:100DE000012000F059F8282000F056F8012000F00A
:100DF00053F8102000F050F8032000F04DF8402088
:100E000000F04AF8812000F047F8342000F044F860
:100E1000042000F041F8DA2000F034F8532000F00C
:100E20003BF8002000F038F8302000F035F80020C2
:100E300000F032F8552000F02FF8002000F02CF8D8
:100E4000422000F029F8002000F026F8832000F06E
:100E500023F8432000F020F8002000F01DF8832044
:100E600000F01AF8532000F017F8002000F014F8F2
:100E70004FF4967000F0E6F8512000F00DF810BD28
:100E80000010014010B504462A2000F005F8E0B239
:100E900000F002F810BD000010B5044601210B4817
:100EA000FFF744FB2046FFF7CDFD10210848FFF770
:100EB0003DFB20210648FFF73BFB20210448FFF7BC
:100EC00035FB01210148FFF733FB10BD000C014049
:100ED0000010014010B5044601210B48FFF726FB26
:100EE0002046FFF7AFFD10210848FFF721FB202126
:100EF0000648FFF71DFB20210448FFF717FB0121DF
:100F00000148FFF715FB10BD000C01400010014027
:100F100010B540F225511D4800F03EF810B31B48B3
:100F200000F064F8C4B21A48008800F40040C8B960
:100F30001748008800F4804060B10A2C03D00020DC
:100F40001349088020E01248008840F4004010490E
:100F5000088019E00D2C06D10D48008840F480402F
:100F60000B49088010E00A480088C0F30D000949C9
:100F70000C5407480088401C054908800846008832
:100F8000C72801DD0020088010BD000000380140A6
:100F90001C0000202000002070B502460024002321
:100FA0000025002040F66A16B14200D100BFC1F30F
:100FB000421501F01F03012606FA03F3012D02D1A9
:100FC0009689334006E0022D02D1168A334001E0B3
:100FD000968A33400C12012606FA04F4168834402F
:100FE00013B10CB1012000E0002070BD01468888DB
:100FF000C0F30800704700BFFEE7014600BF70471E
:1010000010B56FF00400FFF733FE0A4800680A4984
:10101000B0FBF1F0094908700846007800EB400188
:10102000C1EBC0104FF6FF7101EAC000044908800F
:1010300010BD00000000002000127A001400002003
:10104000160000200146114A12884A434FF0E0235F
:101050005A6100229A611A46126942F001021A612D
:1010600000BF4FF0E022106900F001021AB100F455
:101070008032002AF5D04FF0E022126922F00102FE
:101080004FF0E0231A6100229A6170471600002099
:101090001CB5FFF7B5FFFFF7E5FC4FF4FA70FFF75B
:1010A000D1FFFFF755FE7A48FFF73CFE4FF47A7008
:1010B000FFF7C8FFEAE07748FFF734FE4FF47A7095
:1010C000FFF7C0FF7248FFF72DFE4FF47A70FFF76D
:1010D000B9FFFFF738F94FF47A70FFF7B3FFFFF766
:1010E0006BF94FF47A70FFF7ADFFFFF7C6F84FF4D6
:1010F0007A70FFF7A7FF4FF47840FFF7FFFD4FF43A
:101100007A70FFF79FFF4FF4FC60FFF7F7FD4FF495
:101110007A70FFF797FF1F20FFF7F0FD4FF47A700A
:10112000FFF790FF4FF6E070FFF7E8FD4FF47A709D
:10113000FFF788FF4FF6FF70FFF7E0FD4FF47A707E
:10114000FFF780FF0020FFF7D9FD4FF47A70FFF71B
:1011500079FF4FF4784010234FA20221009019200C
:10116000FFF73EFC4FF47A70FFF76CFF4FF4FC6022
:1011700010234CA2142100900F20FFF731FC4FF4F4
:10118000FC634CA224210520FFF740FA4FF61F0014
:1011900010234CA2342100901420FFF721FC4FF4BF
:1011A0007A70FFF74FFF4FF6FF70102348A24621D9
:1011B00000900520FFF714FC4FF6E070102345A2C5
:1011C000462100902320FFF70BFC40F21F50102314
:1011D00043A2562100902820FFF702FC4FF47A70BA
:1011E000FFF730FF1F2010233FA26E210090142034
:1011F000FFF7F6FB4FF47A70FFF724FF0020FFF7AC
:101200007DFD47F6FF733B4A04210020FFF7FEF9FE
:101210004FF47A70FFF716FF0020FFF76FFD4FF4D1
:10122000784014230F22002100900846FFF729FA86
:101230004FF4FC601E232322142100900846FFF780
:1012400076FA1F230D2232210846FFF795FA4FF652
:10125000E070002118234122CDE900105021002028
:10126000FFF7EAFA4FF6FF700C21042340F2D24256
:10127000CDE9001050213220FFF766FB4FF47A7061
:10128000FFF7E0FE4FF47A70FFF7DCFE13E7000093
:10129000189B0008F81200084C434420544553544E
:1012A0000000000073746D3332203130332F34303E
:1012B00031000000BACBD0C4B0E52F2F2FDFA3BB85
:1012C000C6C8BA00323939323032393838000000F5
:1012D00062793A00323534353838393136370000E2
:1012E0006D79646967697400323031362F30372F79
:1012F00033300000F83A0108FFFFFFFFFFFFFFFF58
:10130000FFFFFFFFFFFFFFFFFFFFFFFF78127012DD
:10131000580E500E60127835911680B670555012E6
:101320004010689689396877481538124012401481
:1013300048174016401638143016487A403930188D
:10134000487A50FB405B20162018303B48DC389B25
:10135000201B201B181A1819201B203E181B1019BF
:10136000081B205F183E30FE28FE081E081F081FBD
:10137000081A0016001C001F001F98008800880033
:101380005800700098009000B800C800E800E8001D
:10139000E800F800F883F8A3F966FACCF9A7FA2A6E
:1013A000F987F967F863F800F001F001F843F844B1
:1013B000F843F823F885FAAEFB91F9EBF949F9CB3C
:1013C000FA4DFB51FA8EF846F802F96BFAF1FB522E
:1013D000FB52FB31FA6FF92AF92BF94BF92BF9EF94
:1013E000FB53FBD5FA30FAD2FE9AFCD7FAB3FA9245
:1013F000F9F1FFE0001FFFE0001FFFE0001F000009
:10140000FFFFFFE0FFE0FFE0FFE0FFE0FFE0FFE0C5
:10141000FFE0FFE0FFE0FFE0FFE0FFE0FFE0FFE0D4
:10142000FFE0FFE0FFE0FFE0FFE0FFE0FFE0FFE0C4
:10143000FFE0401240124013FFE0481640163815F6
:1014400030154839485930194039591B407B20160E
:101450002018301B48DC38BB201B181B181B181920
:10146000181B201E181B1019081A185F183E28DEBA
:10147000311E081E081F081F081A0017001C001F35
:10148000001F98009000880058007000900098009D
:10149000B800C000E800E800F000F800F8C4F8A3C5
:1014A000F9A7FACCF987FA2AF967F946F863F80040
:1014B000F001F801F844F823F823F823F8E6FB2FAD
:1014C000FB50F969F969F9ECFA8EFB30FA0DF80472
:1014D000F803FA0DFAF1FB52FB31FAF1FA0EF90BAF
:1014E000F96CF92BF94CFA70FBB4FB74F9B0FC966B
:1014F000FE19FBB4FA72FA31F9F1FFE0001FFFE0C8
:10150000001FFFE0001F0000FFFFF800F800F800D8
:10151000F800F800F800F800F800F800F800F8000B
:10152000F800F800F800F800F800F800F800F800FB
:101530004011481280F88139FFE0FFE0401240136B
:10154000FFE048174016401630144019487930190A
:101550003819591B48BB28181817301A40BC40DBF3
:10156000201B201B201B1819181A201E181C1019CC
:101570000819183E181E28BE311E101E081F081F0D
:10158000081A0017001B001F001F98009000880019
:101590005000780090009000B800C000F000E80013
:1015A000F000F800F8E4F8C3F9C8FA8BF9C8FA09B2
:1015B000F967F947F842F801F001F802F864F823F6
:1015C000F823F824F948FB50FAAFF908F969FA2C26
:1015D000FAAFFB30F9ABF803F846FA8FFB11FB11B9
:1015E000FB11FAB0F9ADF92BF98CF94BF9CEFAF2FF
:1015F000FBB5FAB2FA10FE19FD58FAB3FA52F9D156
:10160000FA52FFE0001FFFE0001FFFE0001F000094
:10161000FFFFFFE0FFE0FFE0FFE0FFE0FFE0FFE0B3
:10162000FFE0FFE0FFE0FFE0FFE0FFE0500E6011B1
:101630007835913780B6F800501240106896893896
:101640006898481440114012FFE0481740154017B1
:1016500030143817485A3019381950DA50DB281925
:101660001816281A40BC40DB281B201B201B181909
:10167000181A201D181C10191019103E181F28BE0A
:10168000313E081E081F081F081B0017001B001F03
:10169000001F980090008800500070009000980093
:1016A000B800C000F000F000F000F801F8C4F8C382
:1016B000FA09FA4AF9E8F9EAF988F927F822F8016B
:1016C000F001F802F864F803F823F824F9AAFB7192
:1016D000FA6DF908F9AAFA4CFAF0FAF0F909F802E9
:1016E000F909FAD0FB32FB11FAF1FA90F96CF96CB6
:1016F000F96CF94CFA2FFB33FB94FA10FB73FE5A8A
:10170000FC16FA52FA31F9D0FAF4FFE0001FFFE0BC
:10171000001FFFE0001F0000FFFFC618C618C61814
:10172000C618C618C618C618C618C618701078127B
:101730007812FFE0500E5810701488F688F6F80002
:10174000581340105834813878D85016401240123F
:10175000FFE048174015381738143816483938193B
:10176000301948BA50DB30192016281A387C48FC4A
:10177000283B201B201B181A181A181C181C10199B
:101780001018101D181F209E313E101E081F081F24
:10179000081B0817001B001F001F9000900080000E
:1017A00050007000FFE09800B800FFE0FFE0FFE0AD
:1017B000FFE0FFE0F904F8E4FA2AFFE0FA09F9E9AA
:1017C000F987F926F802F801F001F823F884F823E4
:1017D000F803F844FA0BFB71F9EBF908F9AAFA2DB2
:1017E000FB10FA8FF887F803F9ACFB11FB32FB1101
:1017F000FAD0FA2EF94BF96CF92BF98DFA91FB74AA
:10180000FB33F9D0FD37FDD9FAF4FA31F9D0FA11EA
:10181000FB75FFE0001FFFE0001FFFE0001F00005E
:10182000FFFF680A600A5809580A4809600B600CF3
:101830004809C618680E78117012FFE0580E580F4C
:10184000681380B69116F80060144010501280F8AA
:101850008158603640144012FFE04817481740177F
:1018600038153815403938193018487A50FB383A4D
:1018700020172019385B48FC387B181C201B201AC5
:101880001819181C181C10191018101D101F185E9C
:10189000311E101E081F081F081B0817001B001F01
:1018A000001FA0009000800058007800FFE0980022
:1018B000C000FFE0F000F000F800FFE0F904F8C419
:1018C000FA6AFFE0FFE0FFE0FFE0FFE0FFE0F80181
:1018D000F001F823F864F823F803F8A5FA6DFB305B
:1018E000F969F908F9CBFA6DFB51FA4EF804F804DE
:1018F000FA6EFB11FB10FAF0FAB0F9ADF92BF9AD65
:10190000F94CF9CEFAF2FB94FA92FA51FE19FCB6B0
:10191000FA51FA11F990FA93FBB6FFE0001FFFE0CD
:10192000001FFFE0001F0000FFFF700A680A580A4E
:10193000580950095009680C500AC618600C7811F3
:101940007811FFE0600F580E601180759957F8000C
:1019500070354812401170B78958687740144012AA
:1019600040144816481740163816301540384019AC
:101970003019405A50FB405B20172019303B48FC7F
:10198000389B201C201B181A1819181C181C181A10
:101990001018101C101F187E313E103E081F081F23
:1019A000081B0817001B001F001FA00090008000EC
:1019B00050007800FFE09800FFE0FFE0F000F0004A
:1019C000F800FFE0F8E4F8E4FAABFFE0FA09F9C840
:1019D000F9A8F8E5F801F801F801F843F844F8032C
:1019E000F823F8E7FACFFAEFF928F928F9EBFAAF7C
:1019F000FB31F9CCF803F867FAB0FB11FAF1FAB051
:101A0000FA4FF96CF96CF98CF96CFA30FB12FB7334
:101A1000FA10FBB4FE19FBB4FA11F9F1F9D0FB1579
:101A2000FB14FFE0001FFFE0001FFFE0001F0000AD
:101A3000FFFF700A700A600A5809580A4808600BCC
:101A4000600BC618500A700F7811FFE06810580E2E
:101A50006010701490F6F8007035581340106855F7
:101A6000897978B748154013401440154818401636
:101A700040173814381840193018403950DA409B54
:101A800028182018301B40DC40BB201C201B201ACB
:101A90001819181C181D181A1017101C181F183E9A
:101AA000311E103E081F081F081C0817001A001FCF
:101AB000001FA0009000780050007800FFE0980020
:101AC000C000D000F000F000F800FFE0F8E4F904F6
:101AD000FA8BFFE0FA2AF9A8F988F8C5F801F801AD
:101AE000FFE0FFE0FFE0FFE0FFE0FFE0FFE0FFE0FE
:101AF000FFE0FFE0FFE0FFE0FFE0FFE0FFE0FFE0EE
:101B0000FFE0FFE0FFE0FFE0FFE0FFE0FFE0FFE0DD
:101B1000FFE0FFE0FFE0FFE0FFE0FFE0FFE0FFE0CD
:101B2000FFE0FFE0FFE0FFE0FFE0FFE0001FFFE07D
:101B3000001FFFE0001F0000FFFF780A700A680A1C
:101B4000580A580A5009580A680CC6184009600D0E
:101B50007811FFE07011580F5810681388B5F8001D
:101B60007876601440105813811879185016401474
:101B700040134015481748164016C618C618C61810
:101B8000C618C61850DA48DB30192018281B40DC6C
:101B900040DB281C181B201A1819181B181D181AAE
:101BA0001017101B181F101E311E185E081F081F6B
:101BB000081B0817001A001F001FA00090007800E3
:101BC00050007800FFE09800C000D000F000F00066
:101BD000FFE0FFE0F904F905FA6AFFE0FFE0FFE04B
:101BE000FFE0F8A4F801F801F802F864F843F803FC
:101BF000F864F9AAFB0FFA0CF8C7F969FA2DFB3063
:101C0000FAB0F887F803F9ECFB11FB31FAB0FA4FA0
:101C1000F9CDF94BF9EDF94CF9CE001F001F001F6B
:101C2000001F001F001F001F001F001F001F001FBC
:101C3000001F001F001FFFE0001FFFE0001F00004B
:101C4000FFFF880B700A700B600A5809580A480891
:101C5000600CC6184008580B7010FFE07812600F37
:101C6000580F68128075F80080D668154811481220
:101C700078D78138605640144813481548174817DC
:101C8000C618C618381640393019C61848BA50DB7D
:101C900030192018281A40BB48FB283B201B181A73
:101CA0001818181A181D181B1017101A101E101EBD
:101CB000313E187E081F081F081B0817001A001F56
:101CC000001FA0009000780058008000FFE09800FE
:101CD000C000D800F800FFE0FFE0F882F905F966DF
:101CE000FA6AF9C8FA2AF9A7FFE0FFE0FFE0F80175
:101CF000F822F864F843F823F885FA0BFAEFF98A2A
:101D0000F8C7F9AAFA6DFB31FA4DF805F825FA6F14
:101D1000FB11FAF1FA90FA2EF96BF98CF9ADF98D05
:101D2000FA70001FFB33F9F0FC35FDB9FAF3F9F056
:101D3000F9D0F9D1FB35FA52F8CEF90FF8CFFFE020
:101D4000001FFFE0001F0000FFFF980C780A700BD7
:101D5000680A580A580A4808580AC618480948091B
:101D6000680EFFE078126811580F60117814F800BF
:101D700089167035501340116876813868B7481558
:101D80004014401440165037C618381638164039DB
:101D90003819C618407A50FA383A2018281B40BB28
:101DA00048FB303B201B201B18181819201D181B3E
:101DB00010171019101E101F311E187E081F081F43
:101DC000081C0818001A001F001FA80098007800BF
:101DD00058008000FFE09800C000D800F800FFE045
:101DE000F800F883F905F987FA4AF9C8FA2AF98858
:101DF000F947F883FFE0F801F844F864F843F82461
:101E0000F8C6FA4CFAAEF908F8C7F9ECFAAFFB11CC
:101E1000F9ABF804F8C8FAD0FAF1FAD0FA6FF9EE93
:101E2000F92BF9ADF98DF9AEFAD1001FFAF2FA10DB
:101E3000FD38FCB7FA31F9B0F970FA92FB55F97038
:101E4000F8CFF90FF8AFFFE0001FFFE0001F000020
:101E5000FFFFA02E800A700A680B600A580950091B
:101E60005009C618500A4008600CFFE07812701143
:101E7000600F60107013F800915678966013401050
:101E80005814893878F850164014401440164837D2
:101E90004817401738163818C618C618487A591BFC
:101EA000407B2018281A387B48FC305C201C181B0B
:101EB00018181019181C181B10171019101E101FB5
:101EC00030FE207E101F081F081C0018001A001F7B
:101ED000001FA8009800780058008000FFE09800DC
:101EE000C000E000FFE0F800F800F8A3F905F9A849
:101EF000FA6AF9C8FA09F988F926F843FFE0F80107
:101F0000F864F864F823F844F907FA8DFA6DF8C715
:101F1000F908FA0CFACFFAF0F909F803F98BFAF19B
:101F2000FB11FAD0FA4FF9CDF94BF9CDF96DFA0F53
:101F3000FAF2001FFA51FB12FDB9FB74F9B0F9B0C7
:101F4000F990FAD4FAD3F8CEF90FF910F86EFFE051
:101F5000001FFFE0001F0000B0D0A870900B700AB7
:101F6000700B600A5809580A4808C618580B4808E8
:101F7000500AFFE0801278126810580F6812F800BB
:101F8000F800F800F800F800F800F800F800F80091
:101F9000F800F80048154837481740173815C61894
:101FA000C61830194039511A48BB2018201A305B26
:101FB000491C387C181C181B18181818181C181BDA
:101FC00010181019101E101F30FE207E081F081F49
:101FD000081D0019001A001F001FA80098007800B3
:101FE00058007800FFE09800C800FFE0FFE0F00034
:101FF000F800F8C3F925F9C8FA29FA09F9E9F987C7
:10200000F906F842FFE0F802F884F864F823F8646F
:10201000F948FA8EF9EBF886F949FA4DFAF0FAAF79
:10202000F867F804FA0DFAF1FB11FA90FA2FF98C1F
:10203000F96CF9ADF96DFA50FB13001FFFE0FFE0FA
:10204000FFE0FFE0FFE0FFE0FFE0FFE0FFE0FFE098
:10205000FFE0FFE0FFE0FFE0001FFFE0001F0000E7
:10206000B0AFB090A00D800A700B680A600A5809E2
:102070005009C618600B50094808FFE07812781222
:102080007011580F601178349936891670555012B6
:1020900040117096813868974815481440155017BC
:1020A000C618C618C618C618C618C618C61850DAF4
:1020B00048FB28192019303B48FB389C201C181B72
:1020C00018191818181B181C10181017101D101F9D
:1020D00028DE209E101F081F081D0819001A001F67
:1020E000001FB0009800700058007800FFE0A000CA
:1020F000FFE0FFE0F800F800F800F8E4F946F9C85E
:10210000FA09FA29FFE0FFE0FFE0FFE0FFE0F82234
:10211000F864F864F823F884F9AAFAAEF98AF8A604
:10212000F9AAFA8EFB31FA4DF804F846FAB0FB1121
:10213000FAD0FA4EFA2EF94CF9ADF98DF9CEFAB182
:10214000FB12001FFFE0FD78FC56F9D0F9B0F990C2
:10215000FA93FAF4F92FF90FF930F88EF80CF00B26
:10216000001FFFE0001F0000A88EB0B0B04F880B2A
:10217000700B700A680A5809580AC618580B580A92
:102180004008FFE078107812701160106010701332
:1021900088F691567896581340106035811878F873
:1021A000501640144815481750374017381738173D
:1021B00040393019381950DA50FA301A2019301ACB
:1021C000491B40DC201C181B18191817181B181C59
:1021D00010181017101D101F28DE20BE103E081FFB
:1021E000081D0819001A001F001FB00098006800A1
:1021F000580078007800A000FFE0FFE0FFE0FFE07B
:10220000FFE0FFE0FFE0FFE0FA08FA29F9C8F9472C
:10221000F8C5F822F801F843F884F864F844F8C6E1
:10222000F9EBFA6DF928F8C6F9ECFAAEFB31F9AB27
:10223000F804F92AFAF1FB11FAB0FA2EF9CDF94BAC
:10224000F9EEF98DFA2FFAD2FB13001FFFE0FD998A
:10225000FAF3F98FF9B0F9B1FAF4FA32F90EF9306C
:10226000F8EFF86EF80BF00B001FFFE0001F000006
:10227000A86EB0AFB08F980D780A680A680A600A35
:10228000580AC618580A580B4809FFE0700F801208
:10229000781268116010681280B5995680B6601483
:1022A0004010501378F879385837401540154816C3
:1022B000505748174017381740384039381950DA06
:1022C000511A381A2019301B491C491C281C181B8C
:1022D00018191817181A181C10191017101D101F8C
:1022E000289E28DE103E081F081D0819001A001F2E
:1022F000001FB00098006800580078007000A80027
:10230000C800E800F800F800F800F8E4F945FA2AF7
:10231000F9E8FA29F9E9F947F8A4F842F801F8646C
:10232000F884F844F864F907FA0CFA4CF8C7F8E7AF
:10233000FA2CFACFFAD0F908F803F9ECFB11FB11EB
:10234000FA8FFA2EF9ACF96CF9EDF98DFA50FAF230
:10235000FB13001FFFE0FCD7F9F0F96FF96FFA12D9
:10236000FB15F96FF90FF930F8CFF80DF00BF00B02
:10237000F80DFFE0001F0000A84CA88EB0AFA82EFB
:10238000880B700A680A600A5809C6185009580B69
:102390005009FFE0600D7811781168116010681124
:1023A00080559156891668154811481170B68138C4
:1023B00060964815481548165057C618C618C618CE
:1023C000C618383930194899591B385A2019281B12
:1023D00048DB48FB305C201C181918171819181C0A
:1023E00010191016101C101F209E28DE103E081F0A
:1023F000081D081A001A001F001FB000980068008E
:10240000580078007800B000D000F000F800F80024
:10241000F800F925F946FA29F9E8FA29F9E8F92640
:10242000F8A4F822F802F884F864F844F844F9288B
:10243000FA4DFA0CF8A6F928FA4CFAF0FA8FF84699
:10244000F805FA6FFB11FAD1FA6EFA0EF96CF9CDB4
:10245000F9CDF9CEFA70FAF2FAD2001FFFE0FBB420
:10246000F96FF98FF990FAB3FA73F90EF950F91080
:10247000F88EF80CF00BF80DF80DF00D001F0000B1
:10248000A00BA84EA8AFB090980D780B680A680A08
:10249000580AC6185009580A580AFFE0580B70101D
:1024A00078127010681060107813913691767875F4
:1024B000501238106055813878F750164815481674
:1024C0005057C61848383817C61840393019487957
:1024D000591A409A2019281A40BB491B305C181C15
:1024E000181A18171818181C181A1016101C101F74
:1024F000289E30FE185E081F081D081A001A001FCB
:10250000001FB00098006800580078007800A8000C
:10251000D000F000F800F800F820F925F986FA2A32
:10252000FA09FA4AF9A8F926F8A4F802F802F8A478
:10253000F864F864F885F949FA4CF98AF886F96A7A
:10254000FA4DFAF0FA0DF804F8A7FAD0FB11FAD018
:10255000FA2EF9EDF96CF9CDF98DFA0FFA91FB121B
:10256000FA51001FFFE0FA71F94FF96FF9D1FAF44F
:10257000F9B0F90FF971F910F82DF80BF00BF80D0F
:10258000F80DE80C001F0000A00AA84CB08FB08F17
:10259000A82E800B700A680A600AC61850095009F4
:1025A000580BFFE05009680E80127011681160101E
:1025B000681280B5997788F660144010501381181E
:1025C00079375856481548164857505748584018B4
:1025D000C61840583819487A591A48DA2019201A6A
:1025E000389B491B387C201C181A18161817181C01
:1025F000181A1017101B081F209E28FE185E081FAF
:10260000081D081A001A001F001FB8009800680073
:10261000580078007800B000D000F000F800F80012
:10262000F801F945F986FA29FA09FA6BF9A8F906C9
:10263000F883F802F843F8A5F864F864F8A6F9AA54
:10264000FA4DF948F865F9CBFA6EFACFF98BF80430
:10265000F94AFB11FB11FA8FFA2EF9ACF98CF9EE5D
:10266000F9CEFA50FAD2FAF2FA31001FFFE0F96F10
:10267000F94FF98FFA72FAB3F90FF950F950F8CF10
:10268000F80CF00BF80DF80EF00DE80CD80B00006C
:102690009809A00BA84EA8AFB04F900C780A700A0A
:1026A000600AC618580A4809580AFFE04809580C39
:1026B0007811801268106010601178549957913623
:1026C00068354810481270B7815868B748154816E1
:1026D0004836C618C618C618C618403838194039C2
:1026E00050FA48FA281A201A385B491C389C201CDA
:1026F000181A18171817181B181A1017101B081F6C
:10270000207F30FE187E081F001D081A001A001FC7
:10271000001FB80098006800580078008000B800DA
:10272000D000F000F800F800F841F986F987FA299E
:10273000FA09FA6AF987F8E5F863F802F864F8A587
:10274000F864F864F8E6F9CAFA2CF8C7F886FA0BC8
:10275000FA8EFAAFF8E8F804FA0DFAF1FAF1FA6F26
:10276000FA0EF96BF9CDF9CEFA0EFA90FAD2FA9286
:10277000FAF2001FFFE0F90EF96FF9B0FAD4F9F19F
:10278000F8EFF950F910F86EF80BF00BF80DF80EA1
:10279000E80CE00CD00B0000980A980AA82DA88E2F
:1027A000B06FA80E800B700A680AC618580A500944
:1027B0005009FFE0FFE0FFE0FFE0FFE0FFE0FFE0A7
:1027C000FFE0FFE0FFE0FFE0FFE0FFE0FFE0FFE011
:1027D000FFE0FFE050164816483750575058483829
:1027E000C61840383839383950FA593B383A201A27
:1027F000303B491B40BC201C181B18171816181A10
:10280000181B1017101A081F207E311E209E081F4B
:10281000001D081A001A001F001FB8009800600071
:10282000580078008000B800D000F800F800F800E8
:10283000F862F986F9C8FA29FA29FA4AF947F8E557
:10284000F883F802F884F884F884F885F907FA0B1D
:10285000F9ECF865F908FA4DFACFFA8EF846F84621
:10286000FA6FFAD0FAD0FA4EF9EDF96CF9EEF9CE2A
:10287000FA50FAB2FAF2FA31FC35001FFFE0F90E15
:10288000F98FFA32FAF4F94FF950F971F8AFF80C00
:10289000F00BF80DF80EF00DE80CE00CC00A00008B
:1028A000A00A9809A00BA84EA88FB02E880C700A19
:1028B000680AC618580950094809580A50095009A9
:1028C000680E8012781168106010681388D699B667
:1028D00088D6581340105814793879575836481606
:1028E0005036C61858775078C618403840393839AD
:1028F00050FA593B387B201A281B48FB40DB281C28
:10290000181B18181816181A181B1017101A081F59
:10291000187E313E20BE081F001D081A001A001F35
:10292000001FB80098006000580078008000B800D0
:10293000D800F800F800F800F882F9A7F9C8FA49B9
:10294000FA4AFA2AF947F8C5F863F802001F001F8F
:10295000F885F8A5F928FA2CF9AAF845F969FA8E4C
:10296000FACFFA0DF804F8C8FAD0FAD0FAB0FA0E95
:10297000F9ACF98DFA2FFA0EFA90FAB1FAD2FA51AF
:10298000FD17001FFFE0F94EF96FFA73FA72F92F85
:10299000F971F931F88EF80CF80BF80EF80DF00C0F
:1029A000E00CD00BA0080000A80A9809980AA82DEE
:1029B000B06FB06FA00D780A700AC618600A580987
:1029C0005009500A500A500A600C781180126810A1
:1029D00060106812807599969137681440104812FB
:1029E00070D77977689750164837C618C618C61832
:1029F000C61840184059381950B9593A409B201A06
:102A0000201A40DB40FC303C181B1818101618190F
:102A1000181C10181019081E183E30FE20BE081F82
:102A2000001D081A001A001F001FB8009800580067
:102A30005000001F8000C000D800001F001F001FB2
:102A4000001F001FF9C8FA29FA4AFA09F926F8C541
:102A5000001F001F001FF884F8A5F8C5F948FA2CDC
:102A6000F948F865F9CBFA8EFACFF96AF804F9CC8F
:102A7000FAF0FAD0FAAFF9EDF98CF9EEFA2EFA2F56
:102A8000FA91FAD2FAB2FB53FD38001FFFE0F94F7A
:102A9000F9B0FAB3F990F950F971F8F0F82DF80B94
:102AA000F80CF80EF00DE80CE00CC00A90080000DD
:102AB000A809A00A9009A00BB06EA86FA80E880BF9
:102AC000700AC618680B580950095009580A50096D
:102AD000500B700F801370116811681170149137CA
:102AE00099977876481140116856815870D75036BA
:102AF0005036505750775078485840384059381918
:102B00004899591A48DB281A281A40BB491C305CDE
:102B1000181B181818161818181C10181019081E49
:102B2000183F311E20BE081F001D081A001B001F81
:102B3000001FC000980058005800001F8000C0000F
:102B4000001F001FF800F800F8C3001FF9C8FA09B9
:102B5000FA6AFA09F926F8E5001FF843F8A5F8849F
:102B6000F8A5F8C6F989FA2CF8E7F8A6FA4DFACFD5
:102B7000FA8FF8E8F805FA4EFAF0FAD0FA4FF9CCE5
:102B8000F96CFA0FFA2FFA90FAB1FAF2FA51FC3610
:102B9000FC96001FFFE0F96FFA32FAB3F950F970B2
:102BA000F991F8CFF80CF80BF80EF80EF00CE80CD1
:102BB000D00BA009A0090000A809A00A9009980A52
:102BC000A80CA86EB04F980C780AC618680B600A5B
:102BD00058094809580A500A5009600D80127812A5
:102BE00068106011701388F699B780D650124011A2
:102BF00058158178795758565036C61850785878F5
:102C0000C6184058405838194079511A50FA301AAD
:102C1000201A409B493C305C181B181918161818CC
:102C2000181C18191019101E101E311E20BE081F66
:102C3000001D081A001B001F001FC000980058004C
:102C40005800001F8800C000001FF800F800F800BE
:102C5000F904001FF9E8F9E8FA6BFA09F906001F10
:102C6000001FF884F8A5F884F885F907F9CAFA0B6B
:102C7000F886F8E7FA8EFACFFA4EF846F8A7FAAFD8
:102C8000FAF0FAD0FA0DF9ADF9ADFA4FFA2FFAB120
:102C9000FAD2FAB2FA91FCF7FB33001FFFE0F970A9
:102CA000FA93F9F1F950F991F930F86EF80CF80C43
:102CB000F82EF80DF00CE00CC00A9808A809A80935
:102CC000A809A809980A9009A00BA84DB06EA80EF3
:102CD000800AC618680A600A580950095009500A43
:102CE0005009580B7810801268106810681280958F
:102CF000A1B7915768344010501378F879776096EF
:102D00005016C618507758B8C61848584058383921
:102D10004879591A511A385A201A387B513C389C34
:102D2000201C181918161817181B181A1018101D1F
:102D3000101F30FE28DE101F001D081B001B001F87
:102D4000001FC000980058005800001F8800C800ED
:102D5000E000F800F800F800F925001FFA09FA0968
:102D6000FA6BF9C8F926001FF843F8A5F8C5F8A5CD
:102D7000F8A6F907FA0BF9EBF845F969FACFFACF9B
:102D8000F9ECF804F949FAD0FAF0FA8FF9EDF9AD57
:102D9000FA2EFA4FFA70FAB1FAB1FA71FB54FCF854
:102DA000F9F0001FFFE0F9D1FAD3F990F991F99108
:102DB000F8EFF80DF80CF80EF82EF00CE00CD00B34
:102DC000A809A008A809B80AB00AA809A00990098A
:102DD000980AA80DB06EB02F980CC618680A680B38
:102DE000600A580A5009580A5009500A680E881398
:102DF0007011681068117834917699B77875481118
:102E0000401270B6817868D75836C61850775897F0
:102E1000C618507940584038405950FA593A407ACB
:102E2000281A305B491C40DC201C181A181618168A
:102E3000181C181A1017081D101F30FE28DE101F4E
:102E4000001E081B001B001F001FC0009800580038
:102E50005800001F9000C800E000F800F800F800DB
:102E6000001F001FF9C8FA09FA6BF987F926001F3D
:102E7000F823F8C5F8A5F8A5F8A5F948FA2CF969DA
:102E8000F865F9CBFAAFFACFF98BF804F9EDFAD07F
:102E9000FAD0FA4FF9CDF9ADFA4FFA4FFAB1FA91EB
:102EA000FAB2FA51FC76FBF6F90D001FFFE0FA3298
:102EB000FA52F94FF9B1F950F86EF80CF80CF82EF7
:102EC000F80DF00DE00CB8099808A809B009D00C6D
:102ED000B82BA809A0099809900AA00BA84DB04EDC
:102EE000A80EC618C618C618C618C618C618C6181A
:102EF000C618C618C618C618C618C618C618C618E2
:102F0000C618C618C618C618C618C618C6187937FF
:102F10005877C618C618C618C61850B94878405908
:102F2000383950DA595A48BA281A303A48FB40DC46
:102F3000201C181B18161016181C181B1017101D13
:102F4000081F30DE28FE101F001D081B001B001F7D
:102F5000001FC000980050005800001F9000D000D3
:102F6000E800F800F800001F001FF9C8F9C8FA09C6
:102F7000FA4BF9A8F906001F001F001F001F001FD1
:102F8000001FF969FA2C001F001F001F001F001FFF
:102F9000001F001F001F001F001F001F001F001F39
:102FA000001F001F001F001F001F001F001F001F29
:102FB000001F001FFFE0FA73F9B1F990F9D1F91081
:102FC000F84DF80BF80DF80EF80CE80CD80BA80823
:102FD000A009B009C00AF00EB86BB00AA008A00999
:102FE00090099809A80DB06EB00E880C700A680A96
:102FF000680B580A50095009580A5009580B7010AC
:10300000801368106811681280B5A1D791566014BA
:10301000401150147917817760B758565077507720
:10302000C61858D848784078383950BA593A48FACA
:10303000301A281A48FB40DC283C181C18171015B9
:10304000181B181B1017101C081F28DE28FE103F25
:10305000001D081B001B001F001FC0009000500037
:103060005800001F9800D800E800F800F800001F82
:10307000F966F9E8F9C8F9E9FA4AF987F926001F6B
:10308000001FF8C6F885F8C5001F001FFA4DF8A705
:10309000F8A6FA8EFAEFFA8FF846F8C8FAD0FAD006
:1030A000FA8FF9CDF9ADFA2EFA90FAB1FAB1FA9198
:1030B000FA71FBB4FC97F96EF90DF98FFFE0FA5342
:1030C000F970F9B1F991F8CFF80CF80CF82FF80E67
:1030D000F00CE00BC00AA008A809B009D80CF81041
:1030E000C0ACB82BA809A009980A9009A00BB04D54
:1030F000B04EA00D780A680A680A600A58094808A4
:10310000500A500A500A680E88137011681068122D
:10311000785499B799B770554011481370D7819872
:103120007117587650775077C61860F948984078EC
:10313000383948B9593A50FB383A281A48DB513CDB
:10314000305C181C18171015181B181B1017101BB3
:10315000101F28BE28FE103F001E081B001B001F6A
:10316000001FC000900050005800001F9800D000C1
:10317000E800F800001F001FF986F9E8F9E8FA09ED
:10318000FA2AF967F906F8A4001FF8E6F8A5F8A6E8
:10319000F906001F001FF845F928FACEFAF0FA2DBB
:1031A000F805F96BFAD1FAF0FA4FF9CDF9ADFA90CA
:1031B000FA90FB12FA91FA91FA71FC76FB94F8CC32
:1031C000F94EF9B0FFE0FA12F990F9B1F930F84D83
:1031D000F80CF80DF82FF80DE80CD80BA809A80981
:1031E000A809C00AF00EF811C92EB84BB00AA00900
:1031F000A00A900A900AA80CB04EA80E880B700A7C
:10320000680A600A580A50095009580A5009580CAF
:10321000801180126810681270139156AA3880F6D7
:1032200050124012687681787957589658775077BF
:10323000C618611950B8487940594879511A511A3D
:10324000307A281A40BB515C387C181C18181014AE
:10325000181A181C1018101B101F209E28DE103F73
:10326000001E081B001B001F001FC000900048002C
:103270005800001FA000D800F000001F001FF82118
:10328000F9C7F9C7F9C8FA29FA29F967F906F884DC
:10329000001F001FF8A5F8A5F927001F001FF8243C
:1032A000F989FAEFFB11F98BF805FA2EFAF0FAF02A
:1032B000FA0DF9ACFA0EFAB1FAB1FAF2FA70FA9123
:1032C000FAF3FCD7FA10F8CDF98FF9F1FFE0F99095
:1032D000F990F991F8EFF82DF80CF82FF80EF00CA2
:1032E000E00CC00AA009B009B009D80CF810F81217
:1032F000C9D0C0ACB80AA809A00998098809A00BD0
:10330000A82DA82E980C700A680A680A600A580A44
:103310005009580A500A500B700F80137010681132
:10332000681288D5A1F7917658133811581581582D
:10333000819860B758775877C61860F860F9489850
:103340004039405950FA593A409B281A387B513B32
:1033500038BC181C181910141819181D1018101B37
:10336000081E209E28DE103F081E081B001B001FA1
:10337000001FC000900048005800001FA800D8009F
:10338000001F001FF800F841F9C8F9A7F9C8FA2A88
:10339000F9E9F987F906F884F8E5001F001F001F16
:1033A000F948001FF969F824F9EBFAEFFAF0F90986
:1033B000F866FAAFFAF0FAD0F9EDF9ADFA6FFAD192
:1033C000FB12FAF2FA71FA91FBD5FC15F90DF92E00
:1033D000F9B0FA32FFE0F9B0F9B2F970F8AEF80CD2
:1033E000F80EF82FF80DF00CE00BB009A809A809A9
:1033F000C00BF00FF812F874CA11C12EB84BB00A06
:10340000A808A0099009900AA80CB02EA80D800B5E
:10341000680A680A600A580A58095009500A500A8E
:10342000680D80127811681168127894A1F7A1D7FD
:10343000705540115014793789D868F75877587704
:10344000C61860F8611950994078405950FA591AD5
:1034500048BB281A385B513B40FC201D101A101441
:103460001818181D1018101A081E207E28DE185F64
:10347000081F001C001C001F001FB800900048001F
:1034800058008000A800D800001F001F001F001F68
:10349000001F001F001FFA2AF9E9F987F905F884CF
:1034A000F906F8A5F8C6001F001F001FF907F84528
:1034B000FA4DFAF0FA8FF866F8E8FAD0FB11FA90B4
:1034C000F9CDF9CDFAB1FAF1FB12FA71FA71FAB24B
:1034D000FC76FAD2F8ACF96FF9B0FA73FFE0F9B103
:1034E000F9D2F910F82DF80CF84EF80EF80DE80C9A
:1034F000C80BA808A809B009E00DF811F812F915D1
:10350000D292C9AFC08CB80BB00AA009980A900932
:10351000A00BB02EB00E900C7009680A680B580A08
:10352000580A5009580A500A580B7810801368102E
:10353000701270339196A21880F64812401368B644
:1035400089D8795758775877509760F8613950B9CA
:103550004898385950DA593A40BA303A305B491BEA
:1035600048FC201D101A10141817181D1019101AD5
:10357000081E205F28DE187F081F001C001C001F8B
:10358000001FB8009000480060008000A800D8002C
:10359000F800F800F800F8A3F9C8F9C7F987FA2A83
:1035A000FA09F967F8E5F884F926F884F8C6F8E628
:1035B000F9CAFA8DF886F8A7FAAEFB10FA2DF825AD
:1035C000F9ABFAF0FB11FA6EF9ADFA2EFAF2FAF253
:1035D000FB32FA70FA51FB33FC96F98EF8CDF98F75
:1035E000FA11FA52FFE0F9D1F971F8CFF80CF80DA1
:1035F000F82FF80DF00DE00BB80AA809A809C80AC1
:10360000F80FF812F894F976D313CA11C94EB82BF3
:10361000B00AA80998099009900AA80DA82EA00D33
:10362000780A700A680A600B580A5009580A580A42
:10363000500B680E88137011701170138935AA38F9
:103640009197581340126035819881B860B75897A8
:10365000507760F8695958F95098383950B9593A43
:1036600048DA303A303A48FB491C201D181B18151F
:103670001017181D1019101A081E183E28DE209F5A
:10368000081F001C001C001F001FB800900048000D
:1036900060008000A800D800F800F800F800F8E406
:1036A000F9E8F9A8F9A8FA2AF9E9F947F8A4F8A578
:1036B000F927F8A5F8C6F907FA2CFA2CF824F92806
:1036C000FAEFFB10F98AF806FA6EFB11FB31FA2EBD
:1036D000F9ADFA4FFB12FB32FAF2FA91FA50FBF510
:1036E000FBB5F8ACF92EF9AFFA52FA12FFE0F9D2B5
:1036F000F950F84DF80CF84FF80EF80DF00CD00B0F
:10370000B009A809B80AE80DF811F833F935F955E8
:10371000DB55D2B2C9D0C0ACB00AA809A00998093B
:103720009009A00BB02DA80E900B700A700A680BC0
:10373000600A580A500A580A500A600C801278121F
:10374000681170138094A1F799F7683438115015F7
:10375000819891F868D75896589760D76959613918
:1037600048B8403948B9593A511A387A303A48FB82
:10377000493C305D101C18161016181D101A10192F
:10378000081E183E28FE20BF081F001C001C001F3A
:10379000001FB8008800480060008000B000E00012
:1037A000F800F800F800F925F9E8F9A7F9C8FA4A8D
:1037B000F9E9F946F884F8E5F926F885F8C5F92716
:1037C000FA4CF9CBF803F98AFAEFFAEFF909F8A7FE
:1037D000FAD0FB52FAF1FA0DF9CDFAF1FB12FB53D4
:1037E000FAB1FA71FAB2FC77FA91F8ACF98FF9B044
:1037F000FA73F9D1FFE0F9B2F8F0F80CF82DF86F90
:10380000F80DF80DE80CB809B008A808C80BF810B6
:10381000F811F8D5F976F8B4DB34DB34D211C96E7F
:10382000B82AB00AA80998099009900AA80DB00E04
:10383000A00D700A680A680A600A580A5809580AEE
:10384000500A580B7010803368107013703399B69B
:10385000AA7880F648124813711789F8713758967C
:1038600058B758B86938695950B940584079593AE9
:10387000513B387A303B48DB515C309C101C1017B0
:103880001015181D101B1019101D103E28FE28BF02
:10389000081F001C001C001F001FB8008800480003
:1038A00060008000B800E800F800F800F800F96552
:1038B000F9E8F9A7F9C8FA4AF9E9F946F884F907E5
:1038C000F8E5F8A5F8E6F969FA8DF949F804FA0C73
:1038D000FAEFFA8FF846F94AFB11FB52FA8FF9AD6D
:1038E000FA2EFAF2FB12FB32FA70FA50FB73FC77F5
:1038F000F94EF8CDF98FFA11FA32F9D1FFE0F971EA
:10390000F88EF80CF86FF82EF80DF00CD80BB00903
:10391000B009B809E80DF811F853F976F915F8135C
:10392000D2B1DB55D2B3D1F0C0ACB009B009A00917
:10393000900A9009A00BB00DA80E880B680A700AB7
:10394000600B580A580A580A500A5009680E883302
:103950007011681270139135AA789196581340131C
:1039600068B689F881B7589658B7509769596999D8
:1039700058D94099383950FA511A40BA303A40BBB8
:10398000517C40BC181D10181014181C101C101964
:10399000081D101E28FE28DF081F001D001C001F28
:1039A000001FB8008800480060008000C000E800E8
:1039B000F800F800F800F986F9C8F9A7F9C8FA4A3A
:1039C000F9C8F926F884F927F8C5F8C6F8E6F9AA7F
:1039D000FACEF8C7F844FA6DFB10FA2DF825FA0D67
:1039E000FB31FB72FA4EF9ADFAB0FB32FB52FB121F
:1039F000FA70FA91FC36FB74F88BF94EF9B0FA5371
:103A0000F9F1F9F2FFE0F930F80CF82DF86FF80D44
:103A1000F80DE80CC00AB009B009D80BF810F8127C
:103A2000F8F5F995F873F812D230D313DB35D231AB
:103A3000C94FB80AB009A00998098809980AA80CC2
:103A4000B00DA00D780A700A680B580A580A580A77
:103A5000580A5009580C801278126811701280941C
:103A6000A257A23768543812605589B789F860B7F1
:103A700060B750B7611871B961194899383950FA6F
:103A8000597A48DA303A389B517C40FC181D10199D
:103A90001014181C181D1019101D101E28DE28FFE8
:103AA000103F001D001C001F001FB80088004800C8
:103AB00060008000C000E800F800F800F800F98716
:103AC000F9E8F987F9C8FA2AFFE0FFE0FFE0FFE034
:103AD000FFE0FFE0FFE0F9EBFA6DF864F8C7FACE1B
:103AE000FB30F96AF866FA8FFB32FB31F9EDFA0E1A
:103AF000FB12FB32FB93FAD1FA91FAD2FCB7FA30FF
:103B0000F88CF96FF9F1FA93F9F1FA33FFE0F8CF95
:103B1000F80DF86EF82FF80DF00DD80BB809B009B4
:103B2000C00AF00EF811F874F996F935F813F81286
:103B3000D1AED271DB34D293D1F0C0ECB009A80978
:103B4000980990099009A00BA80EA80D800B680A8F
:103B5000700B600A58095809580A500A500A700F29
:103B6000883368117012703499B6AA9880F54012A3
:103B70005014817792397117589758B760F879B90E
:103B8000615950B9385950DA595A48FB385A387B7C
:103B9000597B491C201D101A1014181B181D1019D0
:103BA000101D081E28DE28FF103F001D001C001FEE
:103BB000FFE0FFE08800400060008800C800FFE0F0
:103BC000FFE0FFE0FFE0F9C7F9E8F987F9E9FFE076
:103BD000FFE0F8E5F8C5F947F8A5FFE0F8E6FA6C6C
:103BE000FA6DF803F948FB0FFB10F8E9F8E8FAD092
:103BF000FB52FAD0F9ADFA4EFB52FB52FB73FA902E
:103C0000FA70FB94FC56F90DF90DF98FFA52FA325D
:103C1000FA11F9F2FFE0F84DF82DF8AFF80DF80DB4
:103C2000E80DC80AB009B009D80CF810F812F93537
:103C3000F975F873F812F813D12CD1F0D2D2DB3425
:103C4000D252C98FB80AA809A00990098809980A10
:103C5000A80CB00E980C700A700B680B600A580A1A
:103C6000580A580A500A680E881378127012701396
:103C70009135B2B891D75013481470F692387998AC
:103C8000589760D758D77199719950F94078489AE8
:103C9000595A513A389A307A513B515C281D101BC1
:103CA0001015181A181E1019101C101E28DE30FFCF
:103CB000103F001D001D003F001FFFE08800400076
:103CC00068009000FFE0FFE0F800F800FFE0F9C8AE
:103CD000F9C8F987FA09FA6BF9C9F8E5F8E6F9477E
:103CE000FFE0FFE0F948FA8EF9EBF803F9CBFB109F
:103CF000FAAFF866F9ABFB31FB52FA6FF9CDFAB0C7
:103D0000FB73FB73FAF2FA30FA91FC56FB33F88B33
:103D1000F94EF9D0FA52FA32FA12F9B1FFE0F82D61
:103D2000F86FF84FF80DF80DD80BB809B009C80AAC
:103D3000F80EF812F8B4F975F8D4F812F812F8334E
:103D4000D0CBD16ED230DB14DAB3C9D0C0CDB0093C
:103D5000A809980988098809A00BB00DA80D800B47
:103D6000680A700B600A5009580A580B500A580B21
:103D700080118833681168127894AA98AA57603421
:103D8000401368968A1889F860D760F75097719940
:103D900071DA58F940794079595A595B409A305A4A
:103DA000513B597C285D101C10151819181E101A4B
:103DB000101C081E28BE311F105F001D001D003F93
:103DC000001FFFE08000400068009000FFE0E80076
:103DD000F800F800FFE0FFE0F9C8F987FA29FA2AAD
:103DE000F9A8F8C5F927FFE0FFE0F8E6F969FAEF6E
:103DF000F948F803FA2DFB10FA2DF846FA4EFB525B
:103E0000FB32FA0DF9EDFB32FB53FB93FA91FA30DA
:103E1000FAF2FC97F9CFF8ACF94EFA11FA32FA122D
:103E2000FA33F971FFE0F82DF8B0F80DF80DE80C51
:103E3000C80AB809B809E00CF811F873F955F95532
:103E4000F853F812F812F8B4D0CAD0ECD1CFD2910E
:103E5000DB14D231C98FC00AA808A00988098009DB
:103E6000900AA80DB00D980C7009700B680B5809DA
:103E7000580A580A500A500A700F9054701168126C
:103E8000703399D6B2D880F54013583581B792581F
:103E900060F760D758B7695879FA613948B94079FD
:103EA000593A597A40DA305B493B599C389C101D8D
:103EB00010161818181E101B101C081E289E313EC4
:103EC000103E001D001D003F001FFFE0800040006D
:103ED00070009800D000E800F800F800F862FFE0F9
:103EE000F9C8F987FA29FA2AF9A8F8C5F947FFE0CD
:103EF000F8C6F8E6F9AAFB0FF8C6F845FFE0FFE0C0
:103F0000FFE0FFE0FFE0FFE0FFE0FFE0FFE0FFE0B9
:103F1000FFE0FFE0FFE0FFE0FFE0FFE0FFE0FFE0A9
:103F2000FFE0FFE0FFE0FFE0FFE0FFE0FFE0F86E12
:103F3000F86FF80DF80DE00CC00AB809D00AF80FB8
:103F4000F812F914F996F8D4F812F813F853F93571
:103F5000D0EBD0CBD14DD1EFDAD3D2B3D1F0C90D64
:103F6000B007A009900888098809A00BA80DA80D22
:103F7000780A680A700B600A5009600B580B500AE7
:103F8000600C88138032701268138936B2F891D7AA
:103F90005013501479579A79717860B758B76138CF
:103FA00079FA697950D94059511A617B50FA305ADF
:103FB00040FB599C38DC181D10171017181F101BD8
:103FC000101B081E20BE393E187F001E001D003F3A
:103FD000003FFFE08000380070009800D000E8004B
:103FE000F800F800FFE0FFE0F9C8F967FA2AFA2ABA
:103FF000F988FFE0FFE0F8E6F8E6F8E6FA0BFAEEFB
:10400000F824F907FAEFFB10F8E8F909FB31FB9304
:10401000FA8FF9CDFA90FB73FBD4FAF2FA0FFA910A
:10402000FC76FAB2F86BF92EF9F1FA32FA32FA5359
:10403000F991F88EF80DF8AFF80EF80CF00CD00AE4
:10404000B809C009E80CF811F893F975F935F85377
:10405000F812F833F8D5F915D8EBD0CBD0AAD18E19
:10406000D251DB14D211C98FC00AA8089809880957
:104070008009900AA80DB00E980C680A700B680BA6
:104080005809580A600B500A580B78118854681167
:10409000681278B4AA98A2776014481370F6925800
:1040A00081F860D760D760F879F971B9591940592A
:1040B00048DA619A513A305A40DB61BC411C181D04
:1040C00010181016203E101C101B081D207E313EBB
:1040D000187F001E001D003F003FFFE080003800F9
:1040E00070009800D000E800F800F800FFE0FA083F
:1040F000F987F987FA4AFA0AF947FFE0FFE0F8C5BD
:10410000F8E6F8E7FAADFA8DF803F98AFB10FACF72
:10411000F866F9ECFB52FB52FA2EF9CDFB12FB7359
:10412000FBD4FA70FA30FB12FC77F94EF8ACF98F39
:10413000FA32FA31FA53FA13F930F80DF88EF89092
:10414000F80DF80DE00CC009C009D80BF80FF833D2
:10415000F935F995F893F812F833F894F936F8959B
:10416000E0AAD0EBC8AAD0EBD1AED2D2D2B3D1D193
:10417000C90EB008A008980980088809A00BB00DE6
:10418000A80D780A700A700B600A5009600B580B72
:10419000500A680E9054781268127054A217B2F840
:1041A00078F5401368969238925860F760F758D8BF
:1041B00079D97A1A591948B948DA617A513A387A6C
:1041C00040BB61DC515C201D10191016203E181CEC
:1041D000101B081D187E393F187F001E001D003F70
:1041E000003FFFE0780038007800A000D800E80029
:1041F000FFE0FFE0F925FA08F987F9A7FA6BFA0A58
:10420000FFE0FFE0F9A8F8C5F8E6F907FB0FFA0CA4
:10421000F803FA2CFB31FA4DF886FA8FFB52FB11AA
:10422000F9EDFA0EFB73FB93FB73FA30FA30FBB433
:10423000FB94F88BF90DF990FA32FA32FA73F9F22D
:10424000F8AEF80CF8B0F82EF80CF00DD00AC00952
:10425000C80AF00DF812F8F4F995F8F4F832F812EB
:10426000F874F956F8F5F854E007E0CAD0AAC8AADD
:10427000D14DD230DAF3D211D190C00BA8089808F2
:1042800088088008900AA80CB00E900C6809700B82
:10429000680A5009580A600B500A580C883280533B
:1042A000681268339176B31991B648135814819700
:1042B0009A99693760F758D77198823A615948D905
:1042C0004079595A597B389A389B59BC519C281DC2
:1042D000101A1015203D181C101B081D185E395FA0
:1042E000209F001E001D003F003FFFE078003800C7
:1042F0007800A000D800FFE0FFE0F800F946F9E9F7
:10430000F987F9A8FA4BFA09FFE0F926F988F8C508
:10431000F8E6F968FB50F948F824FAAEFB71F98A1F
:10432000F8C8FAF0FB72FAAFF9ADFA90FB93FBD440
:10433000FAF1FA30FA91FC56FA50F88BF94EF9F18D
:10434000FA32FA52FA53F970F82CF86EF8B0F80C09
:10435000F80DE80CC80AC009E00BF810F873F975FD
:10436000F975F853F812F853F915F956F874F8146A
:10437000C804E828D8CBC88AD0CAD18EDA72DA92BB
:10438000D1D0C8EEB008A008900980088009A00B21
:10439000B00EA00D700A700A680B580A500A600B24
:1043A000580B500A781090747011703280D4B2D8C3
:1043B000A2986014501479569A7979B860F758F732
:1043C0006958827A699951194079595A619B40BA62
:1043D000387B599B59BC305C101B1016183D181EB9
:1043E000101B081D185E395F20BF001E001D003F16
:1043F000005FFFE0780038007800A800FFE0FFE0F1
:10440000F800F800F966FA09F966F9A8FA8BFA0AD1
:10441000FFE0F988F988F8C6F8C6F9CAFB71F8A672
:10442000F8C6FACFFB31F8E8F96AFB11FB72FA4ED5
:10443000F9CDFB32FB93FBD4FA50FA30FB53FC3638
:10444000F90DF8CDF98FFA11FA32FA73F9F2F8AEE4
:10445000F80CF8D0F82EF80CF80DD80BC809D00AD3
:10446000F80DF812F935F996F8F4F832F833F8B493
:10447000F996F8F5F854F814B004D805E069D0AA14
:10448000C869D0ECD1EFDAB2D231D190C02BA807F5
:10449000900988098008900AB00DB00E880B680A50
:1044A000700B600A500A600A600B500A680D905445
:1044B000783370127873A237B33978F5481368D619
:1044C00092588A3860D761176118825979FA593938
:1044D0004099511A599B48DA387B597B61FC309DD1
:1044E000181C0816203C203E081B081D183E393EAB
:1044F00028DF001E001D003F005FFFE0780038004D
:104500007800FFE0FFE0FFE0FFE0FFE0FFE0FFE01A
:10451000FFE0FFE0FA8BF9E9F8E5F9C9F927F8C6F9
:10452000F8E6FA6CFB30F823F948FB31FACFF8676C
:10453000F9EDFB31FB52FA0DFA0EFB93FBD4FB7342
:10454000FA0FFA70FC15FB13F86BF92EF990FA11BB
:10455000FA32FA73F971F82DF84EF8D0F80DF80D1B
:10456000E80DC80AC80AE80CF810F8D4F995F9550E
:10457000F852F833F894F956F956F874F834F814F8
:10458000A004B804E806D8AAD089C869D14DD231B0
:10459000DA92D1D0D12FB00898089009800880080D
:1045A000A00BB00EA00D700A700A700B580A580AC2
:1045B000600B580A580C88128874681270339196F0
:1045C000BB7991D74813607589F89AB9691769372B
:1045D00058F88239825A615940B948DA619A513A99
:1045E000387A515B6A1C40DC181C0817181B205EC7
:1045F000101B081D101E395E28DF001E001D003F25
:10460000007FC000780030007800B000E000F000CB
:10461000F800F800F9C7FA09F946F9E8FA6BF9C8A1
:10462000F8E6F9E9F906F8E6F907FAEEFACEF80342
:10463000F9CBFB72FA8EF8A7FACFFB52FAF1F9CC5C
:10464000FA6FFBB4FBF4FAD1FA0FFAD2FC76F9EF69
:10465000F88BF94EF9D1FA11FA93FA32F8CFF80C37
:10466000F8D0F84EF80CF80DD80BC809D80AF80E97
:10467000F853F955F995F8B3F832F873F8F5F9B637
:10468000F8B5F834F814F8139004A804C805E02825
:10469000D88AD049D0ABD18EDA92D231D190C04BEA
:1046A000A807900988087808900AA80DB00E800B1A
:1046B000680A700B600A5009600B600B500A700F9B
:1046C00090947012703380D4B318AAD86034501408
:1046D0008197A2D97177691758F779F98A7A619920
:1046E00050D948B9619A515A389A491B6A1C493CB9
:1046F000201C0817181A287E101B081D101E315E7A
:1047000030FF001E001D003F005FC0007000380039
:104710008000B800E000F000F800F800F9E8F9E8DF
:10472000F926F9E9FA6BF9C9F906FA2AF8E6F90661
:10473000F927FB50FA0BF803FA8EFB71F98AF8E8B7
:10474000FB11FB72FA8FF9CDFAF1FBB3FBD4FA4FF0
:10475000FA50FB74FBF5F8ACF8EDF990F9F1FA3288
:10476000FA94F991F84DF84DF8D0F80DF80DE80CE1
:10477000C80AD00AE80CF811F915F995F8F4F832DE
:10478000F873F894F996F956F854F814F814F813E5
:104790006803A004B004D806E049D069C849D0EC49
:1047A000D1F0D292D1D0D12FB008980890098008CA
:1047B0008009A00BB00E980D7009700B680B58099A
:1047C000580A600B500A600D905480537012787430
:1047D000A277BB5970D5501471369A99821869170F
:1047E000611769988ABA71DA50F94099597A599AD9
:1047F00040BB48FB6A1C515C203C0818101A287EFC
:10480000101C081D101E395F311E001E001D003FC8
:10481000007FB800700030008000C000E000F000B1
:10482000F800F800FA08F9C8F926F9C9FA6BF9880E
:10483000F927FA0AF8C5F8E6F989FBB1F908F8444E
:10484000FAEFFB92F909F98BFB31FB92FA4EFA0E63
:10485000FB53FBD4FB32F9EFFA91FC56FAB1F86B3B
:10486000F92EF990FA11FA93FA33F8EFF80CF8AF41
:10487000F86FF80CF80ED80BC809E00BF80FF89396
:10488000F9B5F995F873F832F874F956F9B7F89460
:10489000F834F834F813F81440027803A804C0047C
:1048A000E807D869C848C86AD14DD271D231D1B0B1
:1048B000C86CA807980988087808900AA80DB00E57
:1048C000800A680A700B5809580A600B580B500A86
:1048D000781190B57012785391B6BB9989D750135F
:1048E00068D68A58929969176938695892DA7A1A9B
:1048F00059394099595A61BB40DB40DB6A1C599CCD
:10490000285D101A101A30BF101C081C081E393FF1
:10491000313E001E001E005F009FC0007000380086
:104920008000B800E800F800F800F800FA29F9A7BC
:10493000F925FA29FA6BF947F988FA0AF8C5F9074F
:10494000F9EBFBD2F864F8E7FB31FB30F8A7FA4E3D
:10495000FB92FB52F9EDFA6FFBB4FC15FAB0FA0FBB
:10496000FB33FC56F94DF8ACF94FF9D0FA32FA9412
:10497000F991F84DF82DF8D0F80DF80DF00DC80AA2
:10498000D00AF80DF812F955F9B6F914F832F8739F
:10499000F8D5F9D7F915F834F834F834F814F8558F
:1049A000300250029003B004D006E008D049C82875
:1049B000C88BD1CFDA72D1D0D10EB809980890083F
:1049C00080088009A00BB00E980D6809700B680A6A
:1049D0005809600B600B5009680E9095785270531F
:1049E00080F5BB59AAD85813583581D8A2D9715728
:1049F00069586118827A827A61794099593A61BA24
:104A000048FB40DB61FC59DC307D101A081930BED0
:104A1000101C081C081E313E313E081E001E003FBF
:104A2000009FC800700038008000C000E800F80057
:104A3000F800F841FA49F9A7F925FA4AFA6AF9475C
:104A4000F9E9F9C9F8E6F907FA6CFB70F802F98A96
:104A5000FB92FA8EF8C7FAD0FBB3FB11F9CDFAF14D
:104A6000FBD4FBF4FA0FFA30FBD5FB94F88BF8ED8E
:104A7000F96FFA11FA73FA53F90FF80CF8AFF86FEF
:104A8000F80DF80DD80BC809E00CF80FF8D4F9B5FB
:104A9000F975F852F832F894F9B6F976F874F834F2
:104AA000F834F814F855F8B6300238026003A00460
:104AB000B804E006E028D028C828D0ECD230D211C3
:104AC000D18FC8ACA807980880087808900AB00D64
:104AD000B00E780A680A700B600A580A600C500A17
:104AE000500B885388B470327874AA98BB9970D5EB
:104AF00050147977A2F979F8693760F8823992DA37
:104B000069B948B948FA61BA513A40DB61DC6A1CBC
:104B100038BC101B081930BE183D081D081E311E78
:104B2000315E081E001E003F009FC8007000380064
:104B30008000C800E800F800F800F862FA49F98738
:104B4000F925FA4AFA2AF926FA2BF988F906F9071B
:104B5000FB0FFAAEF802FA2CFBB2F9CBF909FB31E4
:104B6000FBB3FA8FF9CDFB72FC15FB32F9EFFAD2E9
:104B7000FC56FA30F88BF90EF9B0FA32FAB4F9D2E1
:104B8000F86DF80DF8D0F80CF80DF00DC809D80A3A
:104B9000F80DF832F996F995F8B3F812F873F9565A
:104BA000FA17F8D5F814F854F814F835F8B6F937B8
:104BB0004002280240027803A804C005E007D82874
:104BC000D008C869D16EDA51D1D0D16FB809A00828
:104BD000900878088009A80CB00F900C6809700B39
:104BE000600A5809680B580B4809781098F57852F4
:104BF000705391D6BBF989D7501471169AB992782F
:104C00006937611871D892FB71F950F948D9619BE5
:104C1000597B40DB59BC6A3C40FC181B0018309E95
:104C2000203D081D081D28FE395E081F001E003F9C
:104C3000009FC000680038008000C800E800F8004D
:104C4000F800F8A3FA2AF966F926FA4BFA0AF926C7
:104C5000FA6BF968F906F927FBB1F9EBF803FACE1C
:104C6000FB92F94AF9CCFB72FBB3FA0EFA2EFBB3B6
:104C7000FC35FA90FA0FFB74FC15F8ECF8ACF94E21
:104C8000F9D0FA72FA73F930F80CF88FF86EF80C64
:104C9000F80DD80BC809F00CF810F915F9F6F9550C
:104CA000F832F853F8D4FA17F955F834F854F834C0
:104CB000F835F8B6F917F9375002300230025802C9
:104CC0009003B004D005E008D028C808D0ABD1D0FC
:104CD000D231D18FC8ADA007980888087808900A0B
:104CE000B00DB00E700A680A680B5809600A600CB3
:104CF0004809600D98B580B4785380F5BB99AAF83F
:104D0000581460B592589AD9695861386158931A05
:104D10007A5A593948B9619A599B40FB597B725C60
:104D2000495C201C0019287D205D081D081D28DE17
:104D3000397E081F001E003F009FC0006800380039
:104D40008000D000E800F800F800F8E4FA29F945FE
:104D5000F946FA6BF9E9F947FA8CF927F927F96965
:104D6000FC12F8E7F865FB30FB51F8C8FA6EFBD38C
:104D7000FB72F9EDFAB1FC14FC14F9EFFA50FC35B2
:104D8000FB33F86BF90DF96FF9F1FA94F9B2F88E7B
:104D9000F80CF8D0F80DF80DE80CC80AE00BF80D87
:104DA000F853F9B6F9B5F893F852F894F9B6F9F75B
:104DB000F874F854F854F834F895F917F937F8F707
:104DC00060024002280238026003A004B805E00631
:104DD000D808C807C828D10CD211D1D0D14FB80AF1
:104DE0009807900878088809A00CB80E900C6809FC
:104DF000700B680B580A680C580B480A883390F5FA
:104E000070537894AAF8BBB96895583581D7A3191F
:104E10007998693760F892DA829A59794099597A83
:104E200061BB491B515B727C517C203C0019287D81
:104E3000289D081C081D28BE397E101F001E003F3B
:104E4000009FC000600038008800D800E800F8002B
:104E5000F800F925FA29F905F967FA8BF9A8F98814
:104E6000FA8CF8E6F907FA0BFC13F824F928FB9200
:104E7000FACFF8E9FB10FBF4FAF0F9CDFB52FC3560
:104E8000FB32F9AEFAF2FC97F9CFF88BF92EF98FD5
:104E9000FA73FA94F930F80CF86FF86FF80CF80D13
:104EA000D80BC809F00CF810F955F9D6F914F852D6
:104EB000F873F915FA57F8F5F834F855F854F896E8
:104EC000F917F937F8F7F8979003480238022802E3
:104ED00040028003B004D005E007D028C807C84AC4
:104EE000D18ED210D190C8AEA80790088808780853
:104EF000980BB00EA80E700A700B700B5809600B5F
:104F0000600C4809700F99167873787399F6C41A73
:104F1000899658147977A2D98218695761188A7AC4
:104F2000931A619948B9593A61DB493B513B729CEC
:104F300061FC283C001A205C30DE081C001D20BEED
:104F4000397F103F001E003F009FC000600030000E
:104F50008800D800E800F800F800F945F9E8F8E41E
:104F6000F9A8FAACF967F9E9FA4BF907F927FAADAC
:104F7000FB90F802F9CBFBB2FA0CF96AFB72FBF377
:104F8000FA4EFA2EFBB3FC75FA70F9EFFBB4FC365F
:104F9000F8ECF8EDF94EF9F0FAD4FA12F88EF80CB4
:104FA000F8D0F80DF80DE80CC809E00BF80EF893EE
:104FB000F9F6F996F873F853F8D4FA16F9B7F854E5
:104FC000F875F875F874F8F7F937F917F8D7F8574E
:104FD0009803700240023002280248029003B8048D
:104FE000D806D807D007C807C8ABD1D0D1B0D14FA9
:104FF000B80A9807900978088809A80CB80F880B98
:10500000680A700B600A600A680C4809500C98B571
:1050100088D578738135BBF9A2B8581468F6929890
:105020009AD9693760F779D99B3B71FA48D950FA18
:1050300061FB515B493B727C621C309C001A203C36
:10504000391E081D001D209E417E103F001E003F9E
:10505000009FC000580030009000D800E800F80021
:10506000F800F966F9E8F8C4F9E9FA8BF967FA4B40
:10507000FA6BF8E6F907FB70FACEF802FA8EFBD26B
:10508000F96AFA0DFB92FB93F9CCFAB0FC15FC35EA
:10509000F9EFFA91FC76FAD2F86BF90EF96FFA5241
:1050A000FAB4F950F80CF84EF88FF80CF80DD80A4D
:1050B000D009F80DF811F995F9F5F8F3F832F8740C
:1050C000F9B6FA57F8B5F854F895F875F8D6F957CF
:1050D000F917F8F7F877F856880298036002380253
:1050E000280230026003A804C005E007D808D007F2
:1050F000C808D10DD1F1D18FD0CEA008980888086A
:105100007808980BB00EA80E700A700B680B580A3E
:10511000680B580B480980129935789378B4B338E6
:10512000BBB9687460758A389AF971986138697882
:105130009B3A7A5A50F948B969DB599B493B6A3C1A
:10514000725C38BC081B181B391E101D001D207E08
:10515000397F103F001E003F00BFC00050003000EC
:105160009000E000E800F800F800F986F9C8F8C4FB
:10517000FA2AFA6BF946FA8CF9C9F8E6F968FC12D2
:10518000F9CAF803FB10FB71F929FAAFFBB3FB5224
:10519000F9ACFB31FC75FB73F9CEFB12FC97F98E71
:1051A000F8ACF90EF9B0FAB4FA33F8AEF80BF8B07F
:1051B000F80DF80DE80CC809E80CF80FF8F4F9F64A
:1051C000F995F852F893F8F4FA97F976F875F89596
:1051D000F875F8B6F957F937F917F8B7F877F857B7
:1051E000A8038802880340023002200238028003AC
:1051F000B005D006E007D007C807C86AD1AFD1B064
:10520000D14FB82B9808980978088809A80DB82EAE
:10521000880B680A780C580A600B680C4809600E05
:10522000A11680B478939A37CC5A8196583581B7B5
:105230009AF981D86978611892FA8ABA59594099CD
:1052400061DA61BB493B6A1C7A9C411C081B101B3C
:10525000415E101D001D185E417E185F001E003F5C
:1052600000BFC000580028009800E000E800F800E7
:10527000F800F9C8F9A7F8C4FA4BFA4AF947FACD89
:10528000F988F906F9A9FC33F8C7F8A6FB92FACF1A
:10529000F94AFB11FBF4FAB0FA0EFBB3FC95FA9055
:1052A000FA0FFBF5FBF5F8ACF8EDF92EFA11FAD48C
:1052B000F971F82CF84DF88FF80CF80DD80BD80AC6
:1052C000F80EF831F9B6F9D6F8D3F872F8D4FA37FF
:1052D000FA37F894F895F895F875F957F977F917BA
:1052E000F8D7F877F877F898E0039002880370020F
:1052F00038022802280250029804B805D806D807B8
:10530000D007C808C8ECD1D0D14FD0EEA008900883
:1053100088087808980BB00EA80E7009780B680BF7
:10532000580A680C500A500A909491157873895560
:10533000C43AA2B8501479779AD98A78695758F83C
:105340008A9A9B1B61BA409961BA61DB515B621C0E
:105350007ADC493C101B081B497E181D001D185E95
:1053600041BE187F001E001F00BFC800500028006B
:105370009800E000E800F800F800FA08F966F8C4C0
:10538000FA8BFA2AF967FB0EF927F906FA2BFC5477
:10539000F803F989FBF3FA2DF9ABFB72FBF3FA0E74
:1053A000FA90FC14FC35F9CEFAB1FC97FA71F86B5F
:1053B000F8EDF96FFA93FA74F8CFF80BF8B0F80D2E
:1053C000F80CE80CC809F80CF810F934F9F6F9549F
:1053D000F853F893F995FAD8F915F875F8B5F87502
:1053E000F936F977F937F917F897F876F897F899C1
:1053F000F803C803800288035802300228023002F2
:105400006803B004C805D807D007C806C829D14E1C
:10541000D18FD12FC02B9807900978088809A80D43
:10542000B82F800B680A700B600A680B600C40098B
:105430007811A176789378B4B378BBF9685568D6BB
:105440008A789AD97198613879F99B7B721A48B930
:10545000597A69FB515B61BB82DC519C181C001BB3
:10546000499E183D001D101E399E209F001E001FE2
:1054700000BFC80050003000A000E800F000F800B5
:10548000F800FA29F946F8E5FA8BF9C8F988FB0E15
:10549000F906F907FAEEFB91F802FA4DFBF3F9ABC6
:1054A000FA4EFBB3FB92F9CDFB32FC75FB73F9AE00
:1054B000FB53FCB7F90DF8ACF8EDF9B0FAF4F9D2FA
:1054C000F80CF82DF88FF80CF80DD80BE00AF80E50
:1054D000F872F9F6F9B5F8B3F893F915FAD8F9F7BF
:1054E000F874F8B5F895F8F6F977F957F917F8D789
:1054F000F876F897F8B8F859E002F803B00380029C
:10550000880238022802200138028003B805D0063C
:10551000D007D007C807D08BD1AFD12ED0CDA008EF
:10552000900888087808980BB80EA00D6809780BC9
:10553000600B600A680C4809580CA13680D4787357
:10554000A277CC9A813660758A18A31979B8613828
:1055500069789B5B829A48D9513A6A1B597B59BB3F
:1055600082FC59FC203C001A497D207D001D101E44
:10557000397E20BF001E001F00DFC8004800300039
:10558000A000E800E800F800F800FA4AF905F9057B
:10559000FAACF9A8FA0AFACDF906F906FBD1FAAD88
:1055A000F802FB0FFBD3F92AFAF0FC14FAF0FA0E1A
:1055B000FBF4FC96FA90FA30FC56FBB4F86BF8ACAE
:1055C000F90EFA93FAB4F8EFF80BF8AFF82DF80CDF
:1055D000F00CD009F80DF810F974F9F6F934F85216
:1055E000F8D4FA16FAD8F8D5F8B5F8B5F8D5F977A9
:1055F000F977F917F8D7F897F877F8D8F879F81510
:10560000C802F003E8039002780270033002200120
:1056100020024802A004C805D806D007C807D00851
:10562000D10DD18FD0EEC02B980790097808880A49
:10563000A80CB82F800B700A700B580A680C580B16
:1056400048099074915678938976C4599A7758147A
:1056500081B7A3198238697858F89B3A931A51395F
:1056600048F9723B59BB519B82FC6A1C285C001BA9
:10567000415D30BD001D081E419E28DF001E001F39
:1056800000BFC80048002800A000E800E800F800BB
:10569000F841FA49F8E4F967FACCF947FA4BFA8B82
:1056A000F8C6F948FC33F9A9F803FBB3FB10F98AF3
:1056B000FB51FC14FA6FFA4FFC35FC35F9CEFAD2E7
:1056C000FCF7FA10F86BF8CDF9B0FB15FA12F82DCB
:1056D000F80DF8B0F80CF80DD80AE00BF80FF893B5
:1056E000FA16F995F893F8B4F955FB38F996F89548
:1056F000F8D5F8B5F937F977F936F917F8D7F897F3
:10570000F8D8F8B9F817C810C802C802F003D803CF
:105710007802780250022802200128026803B804A7
:10572000D006D807D007C806C829D16ED12ED0CD53
:10573000A809900888097808980BB82EA00D700A5F
:10574000780B580A600A680C4809700FA19778B363
:1057500080D4B399BBD9603471369AD892B9717834
:1057600058D78A9A9B5B61B948B971FA61DB599B3A
:1057700082DC727C309C001B413D30FD081D001E08
:10578000399E28FF001E001F00BFD00040002800E7
:10579000A800E800E800F800F882FA29F8C4F9A7A0
:1057A000FAACF946FACDFA0AF8C5F9A9FC95F885DC
:1057B000F927FC34FA6EFA0DFBD2FBD3FA0DFB325B
:1057C000FCB6FB72F9EFFBB4FC97F8ECF8CCF8ED03
:1057D000FA72FAF5F930F80CF8AFF84DF80CF00C55
:1057E000D009F80DF811F9B5F9F5F8F3F893F8F5D3
:1057F000FAD7FA97F8B5F8D6F8B5F937F997F9570F
:10580000F917F8F7F897F8B7F8D9F838D812C81098
:10581000D802C002D802F803B80270027802380237
:105820002002200238028003C005D006D007C80736
:10583000C807D0ABD16ED0CDC84B98079009780877
:105840008809B00DB82F800B700B680B580A680CD4
:10585000500A500BA13689147894A277C49A70F537
:1058600060B592789AF971D858F771F9A3BB721A9A
:1058700040B969DB69FB59BB7ABC7ABC38DC001BD8
:1058800030DC415D081D001D397E311F001F001FE7
:1058900000BFD00038002800B000E800F000F80099
:1058A000F8E3FA29F8A3F9C8FA8BF947FB0EF9A92E
:1058B000F8C6FA4CFC95F801F9EBFC34F9CCFACFB8
:1058C000FC13FB51F9EEFBD3FCB6FA70FA50FCB7AF
:1058D000FB33F84BF8CDF96FFAF4FA53F86DF80C86
:1058E000F8D0F80BF80DD80BE80BF80FF8F3FA1610
:1058F000F934F872F8D4F9F6FB58F935F8D5F8D53B
:10590000F8F6F997F957F917F8F7F8D7F8B7F8F95B
:10591000F879F014C810E815E002D802C802E003D4
:10592000F003A0027002680228022002280250023E
:10593000A804D005D006D007C806C808D14ED10E9D
:10594000D0CDA809980888097808A00BB82E980D22
:10595000680A780C600A600B600C48098053A196B5
:1059600078939196CC9A923758348A18A35979F83B
:1059700059176158A39B829A48D9619A6A1B59BBEF
:10598000729C831C413C001B289C497D081D001D06
:10599000395E395F001F001F00BFD00038003000A3
:1059A000B000E800E800F800F904FA29F883FA2AC0
:1059B000FA4AF927FB2EF947F8C6FB2FFBB1F8018D
:1059C000FACEFBF3F9ABFB31FC14FAAFFA90FC759D
:1059D000FC55F9CEFB33FCF8F98EF86BF8CDFA5292
:1059E000FB35F971F80CF88FF82DF80CF00CD80A8B
:1059F000F80EF811F9F6F9D5F8B3F8B4F955FB58E3
:105A0000FA17F8D5F916F8D5F977F977F8F7F917FD
:105A1000F8F7F8B7F8F8F8B9F815C810E013F8185F
:105A2000C801E002D002C802F003E0038802780255
:105A300058022001200228026802C004D806D006BD
:105A4000C806C806D04AD14ED0CDC86C9807900978
:105A500078089009B00DB02F780A700B680B580ABF
:105A6000700D480A600EA99780D480D5BBF9B39910
:105A700058147997A3198A79695858F89B5A933B17
:105A80005119595A725B59BB727C835C497C001B6B
:105A9000205C51BD101D001D313E397F001F001FCD
:105AA00000BFD00040003000B000E800F000F80077
:105AB000F925F9E8F883FA6BFA09F967FB4EF8E67D
:105AC000F8C6FC34FA8DF802FBB2FB51FA0CFB92DB
:105AD000FC14FA2EFB32FCF6FB52F9CEFC35FC36F8
